{
  "_format": "hh-sol-artifact-1",
  "contractName": "PrivateEscrow",
  "sourceName": "contracts/EscrowPlatform.sol",
  "abi": [
    {
      "inputs": [
        {
          "internalType": "address",
          "name": "oracle",
          "type": "address"
        },
        {
          "internalType": "address[]",
          "name": "tokenWhitelist",
          "type": "address[]"
        },
        {
          "internalType": "address",
          "name": "treasury",
          "type": "address"
        }
      ],
      "stateMutability": "nonpayable",
      "type": "constructor"
    },
    {
      "anonymous": false,
      "inputs": [
        {
          "indexed": true,
          "internalType": "uint256",
          "name": "taskId",
          "type": "uint256"
        },
        {
          "indexed": true,
          "internalType": "address",
          "name": "sponsor",
          "type": "address"
        },
        {
          "indexed": true,
          "internalType": "address",
          "name": "promoter",
          "type": "address"
        }
      ],
      "name": "TaskCreated",
      "type": "event"
    },
    {
      "inputs": [],
      "name": "baseFee",
      "outputs": [
        {
          "internalType": "uint256",
          "name": "",
          "type": "uint256"
        }
      ],
      "stateMutability": "view",
      "type": "function"
    },
    {
      "inputs": [
        {
          "internalType": "enum IEscrow.Platform",
          "name": "platform",
          "type": "uint8"
        },
        {
          "internalType": "address",
          "name": "promoter",
          "type": "address"
        },
        {
          "internalType": "uint256",
          "name": "promoterUserId",
          "type": "uint256"
        },
        {
          "internalType": "address",
          "name": "erc20Token",
          "type": "address"
        },
        {
          "internalType": "uint256",
          "name": "depositAmount",
          "type": "uint256"
        },
        {
          "internalType": "uint256",
          "name": "timeWindowStart",
          "type": "uint256"
        },
        {
          "internalType": "uint256",
          "name": "timeWindowEnd",
          "type": "uint256"
        },
        {
          "internalType": "uint256",
          "name": "persistenceDuration",
          "type": "uint256"
        },
        {
          "internalType": "bytes32",
          "name": "taskHash",
          "type": "bytes32"
        }
      ],
      "name": "createTask",
      "outputs": [],
      "stateMutability": "payable",
      "type": "function"
    },
    {
      "inputs": [
        {
          "internalType": "bytes32",
          "name": "requestId",
          "type": "bytes32"
        },
        {
          "internalType": "uint256",
          "name": "taskId",
          "type": "uint256"
        },
        {
          "internalType": "bool",
          "name": "success",
          "type": "bool"
        }
      ],
      "name": "fulfilTaskCallback",
      "outputs": [],
      "stateMutability": "nonpayable",
      "type": "function"
    },
    {
      "inputs": [
        {
          "internalType": "uint256",
          "name": "taskId",
          "type": "uint256"
        }
      ],
      "name": "fulfillTask",
      "outputs": [],
      "stateMutability": "nonpayable",
      "type": "function"
    },
    {
      "inputs": [],
      "name": "getAllTasks",
      "outputs": [
        {
          "components": [
            {
              "internalType": "enum IEscrow.Status",
              "name": "status",
              "type": "uint8"
            },
            {
              "internalType": "enum IEscrow.Platform",
              "name": "platform",
              "type": "uint8"
            },
            {
              "internalType": "address",
              "name": "sponsor",
              "type": "address"
            },
            {
              "internalType": "address",
              "name": "promoter",
              "type": "address"
            },
            {
              "internalType": "uint256",
              "name": "promoterUserId",
              "type": "uint256"
            },
            {
              "internalType": "address",
              "name": "erc20Token",
              "type": "address"
            },
            {
              "internalType": "uint256",
              "name": "depositAmount",
              "type": "uint256"
            },
            {
              "internalType": "uint256",
              "name": "timeWindowStart",
              "type": "uint256"
            },
            {
              "internalType": "uint256",
              "name": "timeWindowEnd",
              "type": "uint256"
            },
            {
              "internalType": "uint256",
              "name": "persistenceDuration",
              "type": "uint256"
            },
            {
              "internalType": "bytes32",
              "name": "taskHash",
              "type": "bytes32"
            }
          ],
          "internalType": "struct IEscrow.Task[]",
          "name": "_tasks",
          "type": "tuple[]"
        }
      ],
      "stateMutability": "view",
      "type": "function"
    },
    {
      "inputs": [
        {
          "internalType": "uint256",
          "name": "taskId",
          "type": "uint256"
        }
      ],
      "name": "getStatus",
      "outputs": [
        {
          "internalType": "enum IEscrow.Status",
          "name": "",
          "type": "uint8"
        }
      ],
      "stateMutability": "view",
      "type": "function"
    },
    {
      "inputs": [
        {
          "internalType": "uint256",
          "name": "taskId",
          "type": "uint256"
        }
      ],
      "name": "getTask",
      "outputs": [
        {
          "components": [
            {
              "internalType": "enum IEscrow.Status",
              "name": "status",
              "type": "uint8"
            },
            {
              "internalType": "enum IEscrow.Platform",
              "name": "platform",
              "type": "uint8"
            },
            {
              "internalType": "address",
              "name": "sponsor",
              "type": "address"
            },
            {
              "internalType": "address",
              "name": "promoter",
              "type": "address"
            },
            {
              "internalType": "uint256",
              "name": "promoterUserId",
              "type": "uint256"
            },
            {
              "internalType": "address",
              "name": "erc20Token",
              "type": "address"
            },
            {
              "internalType": "uint256",
              "name": "depositAmount",
              "type": "uint256"
            },
            {
              "internalType": "uint256",
              "name": "timeWindowStart",
              "type": "uint256"
            },
            {
              "internalType": "uint256",
              "name": "timeWindowEnd",
              "type": "uint256"
            },
            {
              "internalType": "uint256",
              "name": "persistenceDuration",
              "type": "uint256"
            },
            {
              "internalType": "bytes32",
              "name": "taskHash",
              "type": "bytes32"
            }
          ],
          "internalType": "struct IEscrow.Task",
          "name": "",
          "type": "tuple"
        }
      ],
      "stateMutability": "view",
      "type": "function"
    },
    {
      "inputs": [],
      "name": "owner",
      "outputs": [
        {
          "internalType": "address",
          "name": "",
          "type": "address"
        }
      ],
      "stateMutability": "view",
      "type": "function"
    },
    {
      "inputs": [
        {
          "internalType": "uint256",
          "name": "taskId",
          "type": "uint256"
        }
      ],
      "name": "revokeTask",
      "outputs": [],
      "stateMutability": "nonpayable",
      "type": "function"
    },
    {
      "inputs": [
        {
          "internalType": "bytes32",
          "name": "requestId",
          "type": "bytes32"
        },
        {
          "internalType": "uint256",
          "name": "taskId",
          "type": "uint256"
        },
        {
          "internalType": "bool",
          "name": "success",
          "type": "bool"
        }
      ],
      "name": "revokeTaskCallback",
      "outputs": [],
      "stateMutability": "nonpayable",
      "type": "function"
    },
    {
      "inputs": [
        {
          "internalType": "address",
          "name": "token",
          "type": "address"
        },
        {
          "internalType": "bool",
          "name": "allowed",
          "type": "bool"
        }
      ],
      "name": "setWhitelistToken",
      "outputs": [],
      "stateMutability": "nonpayable",
      "type": "function"
    },
    {
      "inputs": [],
      "name": "taskCount",
      "outputs": [
        {
          "internalType": "uint256",
          "name": "",
          "type": "uint256"
        }
      ],
      "stateMutability": "view",
      "type": "function"
    },
    {
      "inputs": [],
      "name": "treasury",
      "outputs": [
        {
          "internalType": "address",
          "name": "",
          "type": "address"
        }
      ],
      "stateMutability": "view",
      "type": "function"
    },
    {
      "inputs": [],
      "name": "withdrawLink",
      "outputs": [],
      "stateMutability": "nonpayable",
      "type": "function"
    }
  ],
  "bytecode": "0x60806040526032600355600060045573a36085f69e2889c224210f603d836748e7dc0088600760006101000a81548173ffffffffffffffffffffffffffffffffffffffff021916908373ffffffffffffffffffffffffffffffffffffffff1602179055503480156200007057600080fd5b5060405162003548380380620035488339818101604052810190620000969190620002dd565b828282336000806101000a81548173ffffffffffffffffffffffffffffffffffffffff021916908373ffffffffffffffffffffffffffffffffffffffff16021790555080600160006101000a81548173ffffffffffffffffffffffffffffffffffffffff021916908373ffffffffffffffffffffffffffffffffffffffff16021790555060005b8251811015620001d65760016002600085848151811062000167577f4e487b7100000000000000000000000000000000000000000000000000000000600052603260045260246000fd5b602002602001015173ffffffffffffffffffffffffffffffffffffffff1673ffffffffffffffffffffffffffffffffffffffff16815260200190815260200160002060006101000a81548160ff0219169083151502179055508080620001cd9062000418565b9150506200011d565b50505033600660006101000a81548173ffffffffffffffffffffffffffffffffffffffff021916908373ffffffffffffffffffffffffffffffffffffffff16021790555050505050620004ef565b60006200023b620002358462000375565b6200034c565b905080838252602082019050828560208602820111156200025b57600080fd5b60005b858110156200028f578162000274888262000299565b8452602084019350602083019250506001810190506200025e565b5050509392505050565b600081519050620002aa81620004d5565b92915050565b600082601f830112620002c257600080fd5b8151620002d484826020860162000224565b91505092915050565b600080600060608486031215620002f357600080fd5b6000620003038682870162000299565b935050602084015167ffffffffffffffff8111156200032157600080fd5b6200032f86828701620002b0565b9250506040620003428682870162000299565b9150509250925092565b6000620003586200036b565b9050620003668282620003e2565b919050565b6000604051905090565b600067ffffffffffffffff82111562000393576200039262000495565b5b602082029050602081019050919050565b6000620003b182620003b8565b9050919050565b600073ffffffffffffffffffffffffffffffffffffffff82169050919050565b6000819050919050565b620003ed82620004c4565b810181811067ffffffffffffffff821117156200040f576200040e62000495565b5b80604052505050565b60006200042582620003d8565b91507fffffffffffffffffffffffffffffffffffffffffffffffffffffffffffffffff8214156200045b576200045a62000466565b5b600182019050919050565b7f4e487b7100000000000000000000000000000000000000000000000000000000600052601160045260246000fd5b7f4e487b7100000000000000000000000000000000000000000000000000000000600052604160045260246000fd5b6000601f19601f8301169050919050565b620004e081620003a4565b8114620004ec57600080fd5b50565b61304980620004ff6000396000f3fe6080604052600436106100bd5760003560e01c80637c374f991161006f5780637c374f991461020f57806387467fb1146102385780638da5cb5b146102615780638dc654a21461028c578063b6cb58a5146102a3578063d493809e146102ce578063f2c80466146102ea576100bd565b80630c7dbbe3146100c25780631d65e77e146100eb5780631f3cfaec146101285780635c622a0e1461015157806361d027b31461018e5780636ef25c3a146101b9578063779900b4146101e4575b600080fd5b3480156100ce57600080fd5b506100e960048036038101906100e49190611fd4565b610313565b005b3480156100f757600080fd5b50610112600480360381019061010d9190611fd4565b610480565b60405161011f9190612852565b60405180910390f35b34801561013457600080fd5b5061014f600480360381019061014a9190611ebf565b6106fa565b005b34801561015d57600080fd5b5061017860048036038101906101739190611fd4565b610955565b60405161018591906126c0565b60405180910390f35b34801561019a57600080fd5b506101a3610982565b6040516101b09190612623565b60405180910390f35b3480156101c557600080fd5b506101ce6109a8565b6040516101db919061286e565b60405180910390f35b3480156101f057600080fd5b506101f96109ae565b604051610206919061269e565b60405180910390f35b34801561021b57600080fd5b5061023660048036038101906102319190611e5a565b610d01565b005b34801561024457600080fd5b5061025f600480360381019061025a9190611ebf565b610d5c565b005b34801561026d57600080fd5b50610276611101565b6040516102839190612623565b60405180910390f35b34801561029857600080fd5b506102a1611125565b005b3480156102af57600080fd5b506102b86112e1565b6040516102c5919061286e565b60405180910390f35b6102e860048036038101906102e39190611f0e565b6112e7565b005b3480156102f657600080fd5b50610311600480360381019061030c9190611fd4565b61189d565b005b600060056000838152602001908152602001600020905060016002811115610364577f4e487b7100000000000000000000000000000000000000000000000000000000600052602160045260246000fd5b8160000160009054906101000a900460ff1660028111156103ae577f4e487b7100000000000000000000000000000000000000000000000000000000600052602160045260246000fd5b146103ee576040517f08c379a00000000000000000000000000000000000000000000000000000000081526004016103e590612832565b60405180910390fd5b428160050154111580156104055750806006015442105b610444576040517f08c379a000000000000000000000000000000000000000000000000000000000815260040161043b906127f2565b60405180910390fd5b60008282604051602001610459929190612889565b604051602081830303815290604052905061047b816387467fb160e01b611a08565b505050565b610488611b5c565b60056000838152602001908152602001600020604051806101600160405290816000820160009054906101000a900460ff1660028111156104f2577f4e487b7100000000000000000000000000000000000000000000000000000000600052602160045260246000fd5b600281111561052a577f4e487b7100000000000000000000000000000000000000000000000000000000600052602160045260246000fd5b81526020016000820160019054906101000a900460ff166003811115610579577f4e487b7100000000000000000000000000000000000000000000000000000000600052602160045260246000fd5b60038111156105b1577f4e487b7100000000000000000000000000000000000000000000000000000000600052602160045260246000fd5b81526020016000820160029054906101000a900473ffffffffffffffffffffffffffffffffffffffff1673ffffffffffffffffffffffffffffffffffffffff1673ffffffffffffffffffffffffffffffffffffffff1681526020016001820160009054906101000a900473ffffffffffffffffffffffffffffffffffffffff1673ffffffffffffffffffffffffffffffffffffffff1673ffffffffffffffffffffffffffffffffffffffff168152602001600282015481526020016003820160009054906101000a900473ffffffffffffffffffffffffffffffffffffffff1673ffffffffffffffffffffffffffffffffffffffff1673ffffffffffffffffffffffffffffffffffffffff168152602001600482015481526020016005820154815260200160068201548152602001600782015481526020016008820154815250509050919050565b8260006005600085815260200190815260200160002090506001600281111561074c577f4e487b7100000000000000000000000000000000000000000000000000000000600052602160045260246000fd5b8160000160009054906101000a900460ff166002811115610796577f4e487b7100000000000000000000000000000000000000000000000000000000600052602160045260246000fd5b146107d6576040517f08c379a00000000000000000000000000000000000000000000000000000000081526004016107cd90612832565b60405180910390fd5b821561094e5760008160000160006101000a81548160ff0219169083600281111561082a577f4e487b7100000000000000000000000000000000000000000000000000000000600052602160045260246000fd5b021790555060008160030160009054906101000a900473ffffffffffffffffffffffffffffffffffffffff1673ffffffffffffffffffffffffffffffffffffffff1663a9059cbb8360000160029054906101000a900473ffffffffffffffffffffffffffffffffffffffff1684600401546040518363ffffffff1660e01b81526004016108b8929190612675565b602060405180830381600087803b1580156108d257600080fd5b505af11580156108e6573d6000803e3d6000fd5b505050506040513d601f19601f8201168201806040525081019061090a9190611e96565b90508061094c576040517f08c379a0000000000000000000000000000000000000000000000000000000008152600401610943906127b2565b60405180910390fd5b505b5050505050565b60006005600083815260200190815260200160002060000160009054906101000a900460ff169050919050565b600160009054906101000a900473ffffffffffffffffffffffffffffffffffffffff1681565b60035481565b606060045467ffffffffffffffff8111156109f2577f4e487b7100000000000000000000000000000000000000000000000000000000600052604160045260246000fd5b604051908082528060200260200182016040528015610a2b57816020015b610a18611b5c565b815260200190600190039081610a105790505b50905060005b600454811015610cfd5760056000828152602001908152602001600020604051806101600160405290816000820160009054906101000a900460ff166002811115610aa5577f4e487b7100000000000000000000000000000000000000000000000000000000600052602160045260246000fd5b6002811115610add577f4e487b7100000000000000000000000000000000000000000000000000000000600052602160045260246000fd5b81526020016000820160019054906101000a900460ff166003811115610b2c577f4e487b7100000000000000000000000000000000000000000000000000000000600052602160045260246000fd5b6003811115610b64577f4e487b7100000000000000000000000000000000000000000000000000000000600052602160045260246000fd5b81526020016000820160029054906101000a900473ffffffffffffffffffffffffffffffffffffffff1673ffffffffffffffffffffffffffffffffffffffff1673ffffffffffffffffffffffffffffffffffffffff1681526020016001820160009054906101000a900473ffffffffffffffffffffffffffffffffffffffff1673ffffffffffffffffffffffffffffffffffffffff1673ffffffffffffffffffffffffffffffffffffffff168152602001600282015481526020016003820160009054906101000a900473ffffffffffffffffffffffffffffffffffffffff1673ffffffffffffffffffffffffffffffffffffffff1673ffffffffffffffffffffffffffffffffffffffff16815260200160048201548152602001600582015481526020016006820154815260200160078201548152602001600882015481525050828281518110610cdf577f4e487b7100000000000000000000000000000000000000000000000000000000600052603260045260246000fd5b60200260200101819052508080610cf590612c00565b915050610a31565b5090565b80600260008473ffffffffffffffffffffffffffffffffffffffff1673ffffffffffffffffffffffffffffffffffffffff16815260200190815260200160002060006101000a81548160ff0219169083151502179055505050565b82600060056000858152602001908152602001600020905060016002811115610dae577f4e487b7100000000000000000000000000000000000000000000000000000000600052602160045260246000fd5b8160000160009054906101000a900460ff166002811115610df8577f4e487b7100000000000000000000000000000000000000000000000000000000600052602160045260246000fd5b14610e38576040517f08c379a0000000000000000000000000000000000000000000000000000000008152600401610e2f90612832565b60405180910390fd5b82156110fa5760028160000160006101000a81548160ff02191690836002811115610e8c577f4e487b7100000000000000000000000000000000000000000000000000000000600052602160045260246000fd5b021790555060006103e86003548360040154610ea89190612969565b610eb29190612938565b90506000818360040154610ec691906129c3565b905060008360030160009054906101000a900473ffffffffffffffffffffffffffffffffffffffff1673ffffffffffffffffffffffffffffffffffffffff1663a9059cbb8560010160009054906101000a900473ffffffffffffffffffffffffffffffffffffffff16846040518363ffffffff1660e01b8152600401610f4d929190612675565b602060405180830381600087803b158015610f6757600080fd5b505af1158015610f7b573d6000803e3d6000fd5b505050506040513d601f19601f82011682018060405250810190610f9f9190611e96565b905080610fe1576040517f08c379a0000000000000000000000000000000000000000000000000000000008152600401610fd8906127b2565b60405180910390fd5b8360030160009054906101000a900473ffffffffffffffffffffffffffffffffffffffff1673ffffffffffffffffffffffffffffffffffffffff1663a9059cbb600160009054906101000a900473ffffffffffffffffffffffffffffffffffffffff16856040518363ffffffff1660e01b8152600401611062929190612675565b602060405180830381600087803b15801561107c57600080fd5b505af1158015611090573d6000803e3d6000fd5b505050506040513d601f19601f820116820180604052508101906110b49190611e96565b9050806110f6576040517f08c379a00000000000000000000000000000000000000000000000000000000081526004016110ed906127d2565b60405180910390fd5b5050505b5050505050565b60008054906101000a900473ffffffffffffffffffffffffffffffffffffffff1681565b600660009054906101000a900473ffffffffffffffffffffffffffffffffffffffff1673ffffffffffffffffffffffffffffffffffffffff163373ffffffffffffffffffffffffffffffffffffffff161461117f57600080fd5b6000600760009054906101000a900473ffffffffffffffffffffffffffffffffffffffff1673ffffffffffffffffffffffffffffffffffffffff166370a08231306040518263ffffffff1660e01b81526004016111dc9190612623565b60206040518083038186803b1580156111f457600080fd5b505afa158015611208573d6000803e3d6000fd5b505050506040513d601f19601f8201168201806040525081019061122c9190611ffd565b9050600760009054906101000a900473ffffffffffffffffffffffffffffffffffffffff1673ffffffffffffffffffffffffffffffffffffffff1663a9059cbb33836040518363ffffffff1660e01b815260040161128b929190612675565b602060405180830381600087803b1580156112a557600080fd5b505af11580156112b9573d6000803e3d6000fd5b505050506040513d601f19601f820116820180604052508101906112dd9190611e96565b5050565b60045481565b82421080156112f557508284105b611334576040517f08c379a000000000000000000000000000000000000000000000000000000000815260040161132b90612712565b60405180910390fd5b600260008773ffffffffffffffffffffffffffffffffffffffff1673ffffffffffffffffffffffffffffffffffffffff16815260200190815260200160002060009054906101000a900460ff166113c0576040517f08c379a00000000000000000000000000000000000000000000000000000000081526004016113b790612812565b60405180910390fd5b60008511611403576040517f08c379a00000000000000000000000000000000000000000000000000000000081526004016113fa90612732565b60405180910390fd5b3373ffffffffffffffffffffffffffffffffffffffff168873ffffffffffffffffffffffffffffffffffffffff161415611472576040517f08c379a000000000000000000000000000000000000000000000000000000000815260040161146990612752565b60405180910390fd5b60008673ffffffffffffffffffffffffffffffffffffffff166323b872dd3330896040518463ffffffff1660e01b81526004016114b19392919061263e565b602060405180830381600087803b1580156114cb57600080fd5b505af11580156114df573d6000803e3d6000fd5b505050506040513d601f19601f820116820180604052508101906115039190611e96565b905080611545576040517f08c379a000000000000000000000000000000000000000000000000000000000815260040161153c906127b2565b60405180910390fd5b6040518061016001604052806001600281111561158b577f4e487b7100000000000000000000000000000000000000000000000000000000600052602160045260246000fd5b81526020018b60038111156115c9577f4e487b7100000000000000000000000000000000000000000000000000000000600052602160045260246000fd5b81526020013373ffffffffffffffffffffffffffffffffffffffff1681526020018a73ffffffffffffffffffffffffffffffffffffffff1681526020018981526020018873ffffffffffffffffffffffffffffffffffffffff1681526020018781526020018681526020018581526020018481526020018381525060056000600454815260200190815260200160002060008201518160000160006101000a81548160ff021916908360028111156116aa577f4e487b7100000000000000000000000000000000000000000000000000000000600052602160045260246000fd5b021790555060208201518160000160016101000a81548160ff02191690836003811115611700577f4e487b7100000000000000000000000000000000000000000000000000000000600052602160045260246000fd5b021790555060408201518160000160026101000a81548173ffffffffffffffffffffffffffffffffffffffff021916908373ffffffffffffffffffffffffffffffffffffffff16021790555060608201518160010160006101000a81548173ffffffffffffffffffffffffffffffffffffffff021916908373ffffffffffffffffffffffffffffffffffffffff1602179055506080820151816002015560a08201518160030160006101000a81548173ffffffffffffffffffffffffffffffffffffffff021916908373ffffffffffffffffffffffffffffffffffffffff16021790555060c0820151816004015560e082015181600501556101008201518160060155610120820151816007015561014082015181600801559050508873ffffffffffffffffffffffffffffffffffffffff163373ffffffffffffffffffffffffffffffffffffffff166004547f2454c22dc684ff5512045882a113101049fde511c581e351116949e9a2ed763760405160405180910390a46004600081548092919061188c90612c00565b919050555050505050505050505050565b6000600560008381526020019081526020016000209050600160028111156118ee577f4e487b7100000000000000000000000000000000000000000000000000000000600052602160045260246000fd5b8160000160009054906101000a900460ff166002811115611938577f4e487b7100000000000000000000000000000000000000000000000000000000600052602160045260246000fd5b14611978576040517f08c379a000000000000000000000000000000000000000000000000000000000815260040161196f90612832565b60405180910390fd5b806005015442108061198d5750428160060154105b6119cc576040517f08c379a00000000000000000000000000000000000000000000000000000000081526004016119c390612772565b60405180910390fd5b600082826040516020016119e1929190612889565b6040516020818303038152906040529050611a0381631f3cfaec60e01b611a08565b505050565b611a128282611a16565b5050565b60008083806020019051810190611a2d9190612026565b915091506000803073ffffffffffffffffffffffffffffffffffffffff16856000866001604051602401611a63939291906126db565b604051602081830303815290604052907bffffffffffffffffffffffffffffffffffffffffffffffffffffffff19166020820180517bffffffffffffffffffffffffffffffffffffffffffffffffffffffff8381831617835250505050604051611acd919061260c565b6000604051808303816000865af19150503d8060008114611b0a576040519150601f19603f3d011682016040523d82523d6000602084013e611b0f565b606091505b509150915081611b54576040517f08c379a0000000000000000000000000000000000000000000000000000000008152600401611b4b90612792565b60405180910390fd5b505050505050565b60405180610160016040528060006002811115611ba2577f4e487b7100000000000000000000000000000000000000000000000000000000600052602160045260246000fd5b815260200160006003811115611be1577f4e487b7100000000000000000000000000000000000000000000000000000000600052602160045260246000fd5b8152602001600073ffffffffffffffffffffffffffffffffffffffff168152602001600073ffffffffffffffffffffffffffffffffffffffff16815260200160008152602001600073ffffffffffffffffffffffffffffffffffffffff16815260200160008152602001600081526020016000815260200160008152602001600080191681525090565b600081359050611c7a81612f97565b92915050565b600081519050611c8f81612f97565b92915050565b600081359050611ca481612fae565b92915050565b600081519050611cb981612fae565b92915050565b600081359050611cce81612fc5565b92915050565b600081519050611ce381612fc5565b92915050565b600081359050611cf881612fdc565b92915050565b600081519050611d0d81612fdc565b92915050565b600081519050611d2281612fec565b92915050565b60006101608284031215611d3b57600080fd5b611d466101606128b3565b90506000611d5684828501611d13565b6000830152506020611d6a84828501611cfe565b6020830152506040611d7e84828501611c80565b6040830152506060611d9284828501611c80565b6060830152506080611da684828501611e45565b60808301525060a0611dba84828501611c80565b60a08301525060c0611dce84828501611e45565b60c08301525060e0611de284828501611e45565b60e083015250610100611df784828501611e45565b61010083015250610120611e0d84828501611e45565b61012083015250610140611e2384828501611cd4565b6101408301525092915050565b600081359050611e3f81612ffc565b92915050565b600081519050611e5481612ffc565b92915050565b60008060408385031215611e6d57600080fd5b6000611e7b85828601611c6b565b9250506020611e8c85828601611c95565b9150509250929050565b600060208284031215611ea857600080fd5b6000611eb684828501611caa565b91505092915050565b600080600060608486031215611ed457600080fd5b6000611ee286828701611cbf565b9350506020611ef386828701611e30565b9250506040611f0486828701611c95565b9150509250925092565b60008060008060008060008060006101208a8c031215611f2d57600080fd5b6000611f3b8c828d01611ce9565b9950506020611f4c8c828d01611c6b565b9850506040611f5d8c828d01611e30565b9750506060611f6e8c828d01611c6b565b9650506080611f7f8c828d01611e30565b95505060a0611f908c828d01611e30565b94505060c0611fa18c828d01611e30565b93505060e0611fb28c828d01611e30565b925050610100611fc48c828d01611cbf565b9150509295985092959850929598565b600060208284031215611fe657600080fd5b6000611ff484828501611e30565b91505092915050565b60006020828403121561200f57600080fd5b600061201d84828501611e45565b91505092915050565b600080610180838503121561203a57600080fd5b600061204885828601611e45565b925050602061205985828601611d28565b9150509250929050565b600061206f83836122e1565b6101608301905092915050565b61208581612a45565b82525050565b61209481612a45565b82525050565b60006120a5826128e8565b6120af818561290b565b93506120ba836128d8565b8060005b838110156120eb5781516120d28882612063565b97506120dd836128fe565b9250506001810190506120be565b5085935050505092915050565b61210181612a57565b82525050565b61211081612a63565b82525050565b6000612121826128f3565b61212b818561291c565b935061213b818560208601612b00565b80840191505092915050565b61215081612aca565b82525050565b61215f81612adc565b82525050565b61216e81612adc565b82525050565b61217d81612aee565b82525050565b6000612190602783612927565b915061219b82612d3d565b604082019050919050565b60006121b3601983612927565b91506121be82612d8c565b602082019050919050565b60006121d6601983612927565b91506121e182612db5565b602082019050919050565b60006121f9602983612927565b915061220482612dde565b604082019050919050565b600061221c601e83612927565b915061222782612e2d565b602082019050919050565b600061223f602483612927565b915061224a82612e56565b604082019050919050565b6000612262603083612927565b915061226d82612ea5565b604082019050919050565b6000612285601883612927565b915061229082612ef4565b602082019050919050565b60006122a8601883612927565b91506122b382612f1d565b602082019050919050565b60006122cb601083612927565b91506122d682612f46565b602082019050919050565b610160820160008201516122f86000850182612156565b50602082015161230b6020850182612147565b50604082015161231e604085018261207c565b506060820151612331606085018261207c565b50608082015161234460808501826125ee565b5060a082015161235760a085018261207c565b5060c082015161236a60c08501826125ee565b5060e082015161237d60e08501826125ee565b506101008201516123926101008501826125ee565b506101208201516123a76101208501826125ee565b506101408201516123bc610140850182612107565b50505050565b610160820160008201516123d96000850182612156565b5060208201516123ec6020850182612147565b5060408201516123ff604085018261207c565b506060820151612412606085018261207c565b50608082015161242560808501826125ee565b5060a082015161243860a085018261207c565b5060c082015161244b60c08501826125ee565b5060e082015161245e60e08501826125ee565b506101008201516124736101008501826125ee565b506101208201516124886101208501826125ee565b5061014082015161249d610140850182612107565b50505050565b610160820160008083015490506124b981612b67565b6124c66000860182612156565b506124d081612b9b565b6124dd6020860182612147565b506124e781612bb5565b6124f4604086018261207c565b506001830154905061250581612b33565b612512606086018261207c565b506002830154905061252381612b81565b61253060808601826125ee565b506003830154905061254181612b33565b61254e60a086018261207c565b506004830154905061255f81612b81565b61256c60c08601826125ee565b506005830154905061257d81612b81565b61258a60e08601826125ee565b506006830154905061259b81612b81565b6125a96101008601826125ee565b50600783015490506125ba81612b81565b6125c86101208601826125ee565b50600883015490506125d981612b4d565b6125e7610140860182612107565b5050505050565b6125f781612ab3565b82525050565b61260681612ab3565b82525050565b60006126188284612116565b915081905092915050565b6000602082019050612638600083018461208b565b92915050565b6000606082019050612653600083018661208b565b612660602083018561208b565b61266d60408301846125fd565b949350505050565b600060408201905061268a600083018561208b565b61269760208301846125fd565b9392505050565b600060208201905081810360008301526126b8818461209a565b905092915050565b60006020820190506126d56000830184612165565b92915050565b60006060820190506126f06000830186612174565b6126fd60208301856125fd565b61270a60408301846120f8565b949350505050565b6000602082019050818103600083015261272b81612183565b9050919050565b6000602082019050818103600083015261274b816121a6565b9050919050565b6000602082019050818103600083015261276b816121c9565b9050919050565b6000602082019050818103600083015261278b816121ec565b9050919050565b600060208201905081810360008301526127ab8161220f565b9050919050565b600060208201905081810360008301526127cb81612232565b9050919050565b600060208201905081810360008301526127eb81612255565b9050919050565b6000602082019050818103600083015261280b81612278565b9050919050565b6000602082019050818103600083015261282b8161229b565b9050919050565b6000602082019050818103600083015261284b816122be565b9050919050565b60006101608201905061286860008301846123c2565b92915050565b600060208201905061288360008301846125fd565b92915050565b60006101808201905061289f60008301856125fd565b6128ac60208301846124a3565b9392505050565b60006128bd6128ce565b90506128c98282612bcf565b919050565b6000604051905090565b6000819050602082019050919050565b600081519050919050565b600081519050919050565b6000602082019050919050565b600082825260208201905092915050565b600081905092915050565b600082825260208201905092915050565b600061294382612ab3565b915061294e83612ab3565b92508261295e5761295d612c78565b5b828204905092915050565b600061297482612ab3565b915061297f83612ab3565b9250817fffffffffffffffffffffffffffffffffffffffffffffffffffffffffffffffff04831182151516156129b8576129b7612c49565b5b828202905092915050565b60006129ce82612ab3565b91506129d983612ab3565b9250828210156129ec576129eb612c49565b5b828203905092915050565b600073ffffffffffffffffffffffffffffffffffffffff82169050919050565b6000819050919050565b600060ff82169050919050565b600060ff82169050919050565b6000819050919050565b6000612a5082612a93565b9050919050565b60008115159050919050565b6000819050919050565b6000819050612a7b82612f6f565b919050565b6000819050612a8e82612f83565b919050565b600073ffffffffffffffffffffffffffffffffffffffff82169050919050565b6000819050919050565b600060ff82169050919050565b6000612ad582612a6d565b9050919050565b6000612ae782612a80565b9050919050565b6000612af982612abd565b9050919050565b60005b83811015612b1e578082015181840152602081019050612b03565b83811115612b2d576000848401525b50505050565b6000612b46612b4183612d16565b6129f7565b9050919050565b6000612b60612b5b83612d16565b612a17565b9050919050565b6000612b7a612b7583612d16565b612a2e565b9050919050565b6000612b94612b8f83612d16565b612a3b565b9050919050565b6000612bae612ba983612d30565b612a21565b9050919050565b6000612bc8612bc383612d23565b6129f7565b9050919050565b612bd882612d05565b810181811067ffffffffffffffff82111715612bf757612bf6612cd6565b5b80604052505050565b6000612c0b82612ab3565b91507fffffffffffffffffffffffffffffffffffffffffffffffffffffffffffffffff821415612c3e57612c3d612c49565b5b600182019050919050565b7f4e487b7100000000000000000000000000000000000000000000000000000000600052601160045260246000fd5b7f4e487b7100000000000000000000000000000000000000000000000000000000600052601260045260246000fd5b7f4e487b7100000000000000000000000000000000000000000000000000000000600052602160045260246000fd5b7f4e487b7100000000000000000000000000000000000000000000000000000000600052604160045260246000fd5b6000601f19601f8301169050919050565b60008160001c9050919050565b60008160101c9050919050565b60008160081c9050919050565b7f74696d6557696e646f77456e64206973206265666f72652074696d6557696e6460008201527f6f77537461727400000000000000000000000000000000000000000000000000602082015250565b7f6465706f736974416d6f756e742063616e6e6f74206265203000000000000000600082015250565b7f70726f6d6f7465722063616e6e6f742062652073656e64657200000000000000600082015250565b7f6d757374206265206265666f7265206f722061667465722076616c696420746960008201527f6d652077696e646f770000000000000000000000000000000000000000000000602082015250565b7f636f756c64206e6f742063616c6c2066756c66696c6c53656c6563746f720000600082015250565b7f455243323020546f6b656e20636f756c64206e6f74206265207472616e73666560008201527f7272656400000000000000000000000000000000000000000000000000000000602082015250565b7f455243323020546f6b656e20636f756c64206e6f74206265207472616e73666560008201527f7272656420746f20747265617375727900000000000000000000000000000000602082015250565b7f6e6f7420696e2076616c69642074696d652077696e646f770000000000000000600082015250565b7f746f6b656e206973206e6f742077686974656c69737465640000000000000000600082015250565b7f7461736b206973206e6f74206f70656e00000000000000000000000000000000600082015250565b60048110612f8057612f7f612ca7565b5b50565b60038110612f9457612f93612ca7565b5b50565b612fa081612a45565b8114612fab57600080fd5b50565b612fb781612a57565b8114612fc257600080fd5b50565b612fce81612a63565b8114612fd957600080fd5b50565b60048110612fe957600080fd5b50565b60038110612ff957600080fd5b50565b61300581612ab3565b811461301057600080fd5b5056fea2646970667358221220f52347ce3b05e1852e98ac6b36142e44c7adfa90bff2e63d2d2b3ebb27406cbb64736f6c63430008040033",
  "linkReferences": {},
  "deployedLinkReferences": {}
}