{
  "_format": "hh-sol-artifact-1",
  "contractName": "TruPr",
  "sourceName": "contracts/Escrow.sol",
  "abi": [
    {
      "inputs": [
        {
          "internalType": "address",
          "name": "oracle",
          "type": "address"
        },
        {
          "internalType": "address[]",
          "name": "tokenWhitelist",
          "type": "address[]"
        }
      ],
      "stateMutability": "nonpayable",
      "type": "constructor"
    },
    {
      "anonymous": false,
      "inputs": [
        {
          "indexed": true,
          "internalType": "address",
          "name": "previousOwner",
          "type": "address"
        },
        {
          "indexed": true,
          "internalType": "address",
          "name": "newOwner",
          "type": "address"
        }
      ],
      "name": "OwnershipTransferred",
      "type": "event"
    },
    {
      "anonymous": false,
      "inputs": [
        {
          "indexed": true,
          "internalType": "uint256",
          "name": "taskId",
          "type": "uint256"
        },
        {
          "indexed": true,
          "internalType": "address",
          "name": "sponsor",
          "type": "address"
        },
        {
          "indexed": true,
          "internalType": "address",
          "name": "promoter",
          "type": "address"
        }
      ],
      "name": "TaskCreated",
      "type": "event"
    },
    {
      "inputs": [],
      "name": "MaxTimeWindow",
      "outputs": [
        {
          "internalType": "uint256",
          "name": "",
          "type": "uint256"
        }
      ],
      "stateMutability": "view",
      "type": "function"
    },
    {
      "inputs": [],
      "name": "MaxVestingTerm",
      "outputs": [
        {
          "internalType": "uint256",
          "name": "",
          "type": "uint256"
        }
      ],
      "stateMutability": "view",
      "type": "function"
    },
    {
      "inputs": [],
      "name": "PendingRevokeDelay",
      "outputs": [
        {
          "internalType": "uint256",
          "name": "",
          "type": "uint256"
        }
      ],
      "stateMutability": "view",
      "type": "function"
    },
    {
      "inputs": [],
      "name": "baseFeePerMille",
      "outputs": [
        {
          "internalType": "uint256",
          "name": "",
          "type": "uint256"
        }
      ],
      "stateMutability": "view",
      "type": "function"
    },
    {
      "inputs": [
        {
          "internalType": "uint256",
          "name": "taskId",
          "type": "uint256"
        },
        {
          "internalType": "address",
          "name": "who",
          "type": "address"
        },
        {
          "internalType": "uint256",
          "name": "score",
          "type": "uint256"
        }
      ],
      "name": "calculateRewards",
      "outputs": [
        {
          "internalType": "uint256",
          "name": "",
          "type": "uint256"
        }
      ],
      "stateMutability": "view",
      "type": "function"
    },
    {
      "inputs": [
        {
          "internalType": "uint256",
          "name": "taskId",
          "type": "uint256"
        }
      ],
      "name": "cancelTask",
      "outputs": [],
      "stateMutability": "nonpayable",
      "type": "function"
    },
    {
      "inputs": [
        {
          "internalType": "address",
          "name": "promoter",
          "type": "address"
        },
        {
          "internalType": "address",
          "name": "erc20Token",
          "type": "address"
        },
        {
          "internalType": "uint256",
          "name": "depositAmount",
          "type": "uint256"
        },
        {
          "internalType": "uint256",
          "name": "startDate",
          "type": "uint256"
        },
        {
          "internalType": "uint256",
          "name": "endDate",
          "type": "uint256"
        },
        {
          "internalType": "uint256",
          "name": "vestingTerm",
          "type": "uint256"
        },
        {
          "internalType": "bool",
          "name": "linearRate",
          "type": "bool"
        },
        {
          "internalType": "uint256[]",
          "name": "xticks",
          "type": "uint256[]"
        },
        {
          "internalType": "uint256[]",
          "name": "yticks",
          "type": "uint256[]"
        },
        {
          "internalType": "string",
          "name": "data",
          "type": "string"
        }
      ],
      "name": "createTask",
      "outputs": [],
      "stateMutability": "nonpayable",
      "type": "function"
    },
    {
      "inputs": [
        {
          "components": [
            {
              "internalType": "bool",
              "name": "linear",
              "type": "bool"
            },
            {
              "internalType": "uint256[]",
              "name": "x",
              "type": "uint256[]"
            },
            {
              "internalType": "uint256[]",
              "name": "y",
              "type": "uint256[]"
            }
          ],
          "internalType": "struct ScoreFnData",
          "name": "self",
          "type": "tuple"
        },
        {
          "internalType": "uint256",
          "name": "x",
          "type": "uint256"
        }
      ],
      "name": "evaluateScore",
      "outputs": [
        {
          "internalType": "uint256",
          "name": "",
          "type": "uint256"
        }
      ],
      "stateMutability": "pure",
      "type": "function"
    },
    {
      "inputs": [
        {
          "internalType": "uint256",
          "name": "taskId",
          "type": "uint256"
        }
      ],
      "name": "fulfillTask",
      "outputs": [],
      "stateMutability": "nonpayable",
      "type": "function"
    },
    {
      "inputs": [
        {
          "internalType": "bytes32",
          "name": "requestId",
          "type": "bytes32"
        },
        {
          "internalType": "uint256",
          "name": "taskId",
          "type": "uint256"
        },
        {
          "internalType": "uint256",
          "name": "score",
          "type": "uint256"
        },
        {
          "internalType": "enum ResponseStatus",
          "name": "response",
          "type": "uint8"
        }
      ],
      "name": "fulfillTaskCallback",
      "outputs": [],
      "stateMutability": "nonpayable",
      "type": "function"
    },
    {
      "inputs": [
        {
          "internalType": "uint256",
          "name": "taskId",
          "type": "uint256"
        },
        {
          "internalType": "string",
          "name": "authentication",
          "type": "string"
        }
      ],
      "name": "fulfillTaskPublic",
      "outputs": [],
      "stateMutability": "nonpayable",
      "type": "function"
    },
    {
      "inputs": [],
      "name": "getAllTasks",
      "outputs": [
        {
          "components": [
            {
              "internalType": "enum Status",
              "name": "status",
              "type": "uint8"
            },
            {
              "internalType": "address",
              "name": "sponsor",
              "type": "address"
            },
            {
              "internalType": "address",
              "name": "promoter",
              "type": "address"
            },
            {
              "internalType": "address",
              "name": "erc20Token",
              "type": "address"
            },
            {
              "internalType": "uint256",
              "name": "depositAmount",
              "type": "uint256"
            },
            {
              "internalType": "uint256",
              "name": "balance",
              "type": "uint256"
            },
            {
              "internalType": "uint256",
              "name": "startDate",
              "type": "uint256"
            },
            {
              "internalType": "uint256",
              "name": "endDate",
              "type": "uint256"
            },
            {
              "internalType": "uint256",
              "name": "vestingTerm",
              "type": "uint256"
            },
            {
              "components": [
                {
                  "internalType": "bool",
                  "name": "linear",
                  "type": "bool"
                },
                {
                  "internalType": "uint256[]",
                  "name": "x",
                  "type": "uint256[]"
                },
                {
                  "internalType": "uint256[]",
                  "name": "y",
                  "type": "uint256[]"
                }
              ],
              "internalType": "struct ScoreFnData",
              "name": "vesting",
              "type": "tuple"
            },
            {
              "internalType": "string",
              "name": "data",
              "type": "string"
            }
          ],
          "internalType": "struct Task[]",
          "name": "",
          "type": "tuple[]"
        }
      ],
      "stateMutability": "view",
      "type": "function"
    },
    {
      "inputs": [
        {
          "internalType": "uint256",
          "name": "taskId",
          "type": "uint256"
        }
      ],
      "name": "getStatus",
      "outputs": [
        {
          "internalType": "enum Status",
          "name": "",
          "type": "uint8"
        }
      ],
      "stateMutability": "view",
      "type": "function"
    },
    {
      "inputs": [
        {
          "internalType": "uint256",
          "name": "taskId",
          "type": "uint256"
        }
      ],
      "name": "isPendingRevoke",
      "outputs": [
        {
          "internalType": "bool",
          "name": "time",
          "type": "bool"
        }
      ],
      "stateMutability": "view",
      "type": "function"
    },
    {
      "inputs": [],
      "name": "owner",
      "outputs": [
        {
          "internalType": "address",
          "name": "",
          "type": "address"
        }
      ],
      "stateMutability": "view",
      "type": "function"
    },
    {
      "inputs": [
        {
          "internalType": "uint256",
          "name": "",
          "type": "uint256"
        }
      ],
      "name": "pendingRevoke",
      "outputs": [
        {
          "internalType": "uint256",
          "name": "",
          "type": "uint256"
        }
      ],
      "stateMutability": "view",
      "type": "function"
    },
    {
      "inputs": [],
      "name": "renounceOwnership",
      "outputs": [],
      "stateMutability": "nonpayable",
      "type": "function"
    },
    {
      "inputs": [
        {
          "internalType": "uint256",
          "name": "taskId",
          "type": "uint256"
        }
      ],
      "name": "requestRevokeTask",
      "outputs": [],
      "stateMutability": "nonpayable",
      "type": "function"
    },
    {
      "inputs": [],
      "name": "response",
      "outputs": [
        {
          "internalType": "uint64",
          "name": "",
          "type": "uint64"
        }
      ],
      "stateMutability": "view",
      "type": "function"
    },
    {
      "inputs": [
        {
          "internalType": "uint256",
          "name": "taskId",
          "type": "uint256"
        }
      ],
      "name": "revokeTask",
      "outputs": [],
      "stateMutability": "nonpayable",
      "type": "function"
    },
    {
      "inputs": [
        {
          "internalType": "bytes32",
          "name": "requestId",
          "type": "bytes32"
        },
        {
          "internalType": "uint256",
          "name": "taskId",
          "type": "uint256"
        },
        {
          "internalType": "uint256",
          "name": "score",
          "type": "uint256"
        },
        {
          "internalType": "enum ResponseStatus",
          "name": "response",
          "type": "uint8"
        }
      ],
      "name": "revokeTaskCallback",
      "outputs": [],
      "stateMutability": "nonpayable",
      "type": "function"
    },
    {
      "inputs": [],
      "name": "score",
      "outputs": [
        {
          "internalType": "uint64",
          "name": "",
          "type": "uint64"
        }
      ],
      "stateMutability": "view",
      "type": "function"
    },
    {
      "inputs": [
        {
          "internalType": "uint256",
          "name": "feePerMille",
          "type": "uint256"
        }
      ],
      "name": "setBaseFee",
      "outputs": [],
      "stateMutability": "nonpayable",
      "type": "function"
    },
    {
      "inputs": [
        {
          "internalType": "uint64",
          "name": "_score",
          "type": "uint64"
        },
        {
          "internalType": "uint8",
          "name": "_response",
          "type": "uint8"
        }
      ],
      "name": "setCallbackData",
      "outputs": [],
      "stateMutability": "nonpayable",
      "type": "function"
    },
    {
      "inputs": [
        {
          "internalType": "uint256",
          "name": "time",
          "type": "uint256"
        }
      ],
      "name": "setMaxTimeWindow",
      "outputs": [],
      "stateMutability": "nonpayable",
      "type": "function"
    },
    {
      "inputs": [
        {
          "internalType": "uint256",
          "name": "term",
          "type": "uint256"
        }
      ],
      "name": "setMaxVestingTerm",
      "outputs": [],
      "stateMutability": "nonpayable",
      "type": "function"
    },
    {
      "inputs": [
        {
          "internalType": "uint256",
          "name": "delay",
          "type": "uint256"
        }
      ],
      "name": "setPendingRevokeDelay",
      "outputs": [],
      "stateMutability": "nonpayable",
      "type": "function"
    },
    {
      "inputs": [
        {
          "internalType": "address",
          "name": "token",
          "type": "address"
        },
        {
          "internalType": "bool",
          "name": "allowed",
          "type": "bool"
        }
      ],
      "name": "setTokenWhitelisted",
      "outputs": [],
      "stateMutability": "nonpayable",
      "type": "function"
    },
    {
      "inputs": [],
      "name": "taskCount",
      "outputs": [
        {
          "internalType": "uint256",
          "name": "",
          "type": "uint256"
        }
      ],
      "stateMutability": "view",
      "type": "function"
    },
    {
      "inputs": [
        {
          "internalType": "uint256",
          "name": "",
          "type": "uint256"
        }
      ],
      "name": "tasks",
      "outputs": [
        {
          "internalType": "enum Status",
          "name": "status",
          "type": "uint8"
        },
        {
          "internalType": "address",
          "name": "sponsor",
          "type": "address"
        },
        {
          "internalType": "address",
          "name": "promoter",
          "type": "address"
        },
        {
          "internalType": "address",
          "name": "erc20Token",
          "type": "address"
        },
        {
          "internalType": "uint256",
          "name": "depositAmount",
          "type": "uint256"
        },
        {
          "internalType": "uint256",
          "name": "balance",
          "type": "uint256"
        },
        {
          "internalType": "uint256",
          "name": "startDate",
          "type": "uint256"
        },
        {
          "internalType": "uint256",
          "name": "endDate",
          "type": "uint256"
        },
        {
          "internalType": "uint256",
          "name": "vestingTerm",
          "type": "uint256"
        },
        {
          "components": [
            {
              "internalType": "bool",
              "name": "linear",
              "type": "bool"
            },
            {
              "internalType": "uint256[]",
              "name": "x",
              "type": "uint256[]"
            },
            {
              "internalType": "uint256[]",
              "name": "y",
              "type": "uint256[]"
            }
          ],
          "internalType": "struct ScoreFnData",
          "name": "vesting",
          "type": "tuple"
        },
        {
          "internalType": "string",
          "name": "data",
          "type": "string"
        }
      ],
      "stateMutability": "view",
      "type": "function"
    },
    {
      "inputs": [
        {
          "internalType": "address",
          "name": "newOwner",
          "type": "address"
        }
      ],
      "name": "transferOwnership",
      "outputs": [],
      "stateMutability": "nonpayable",
      "type": "function"
    },
    {
      "inputs": [],
      "name": "withdraw",
      "outputs": [],
      "stateMutability": "nonpayable",
      "type": "function"
    },
    {
      "inputs": [
        {
          "internalType": "address",
          "name": "token",
          "type": "address"
        }
      ],
      "name": "withdrawToken",
      "outputs": [],
      "stateMutability": "nonpayable",
      "type": "function"
    }
  ],
  "bytecode": "0x6080604052600080546001600160801b03191681556224ea00600255630375f0006003556201518060045560326005556006553480156200003f57600080fd5b5060405162003f5438038062003f54833981016040819052620000629162000164565b81816200006f33620000f5565b60005b8151811015620000ea576001600a6000848481518110620000a357634e487b7160e01b600052603260045260246000fd5b6020908102919091018101516001600160a01b03168252810191909152604001600020805460ff191691151591909117905580620000e1816200024f565b91505062000072565b50505050506200028d565b600180546001600160a01b038381166001600160a01b0319831681179093556040519116919082907f8be0079c531659141344cd1fd0a4f28419497f9722a3daafe3b4186f6b6457e090600090a35050565b80516001600160a01b03811681146200015f57600080fd5b919050565b6000806040838503121562000177578182fd5b620001828362000147565b602084810151919350906001600160401b0380821115620001a1578384fd5b818601915086601f830112620001b5578384fd5b815181811115620001ca57620001ca62000277565b8060051b604051601f19603f83011681018181108582111715620001f257620001f262000277565b604052828152858101935084860182860187018b101562000211578788fd5b8795505b838610156200023e57620002298162000147565b85526001959095019493860193860162000215565b508096505050505050509250929050565b60006000198214156200027057634e487b7160e01b81526011600452602481fd5b5060010190565b634e487b7160e01b600052604160045260246000fd5b613cb7806200029d6000396000f3fe608060405234801561001057600080fd5b506004361061020b5760003560e01c806370aab8fd1161012a5780638da5cb5b116100bd578063d7864cff1161008c578063f2c8046611610071578063f2c80466146104f2578063f2fde38b14610505578063f4c592d31461051857600080fd5b8063d7864cff146104cb578063efedc669146104de57600080fd5b80638da5cb5b1461048b5780639653ed7e146104a6578063b6cb58a5146104b9578063c20d096c146104c257600080fd5b80637a7f01a7116100f95780637a7f01a7146104025780637eec20a81461043b578063894760691461044e5780638d9776721461046157600080fd5b806370aab8fd146103bf578063715018a6146103d2578063779900b4146103da57806378c2a262146103ef57600080fd5b806345b7c6fc116101a25780634ed61909116101715780634ed619091461030c57806352da02eb1461031f57806355559d6b146103325780635c622a0e1461038f57600080fd5b806345b7c6fc146102ca578063465efce2146102dd57806346860698146102e65780634ce0a2cd146102f957600080fd5b80630c7dbbe3116101de5780630c7dbbe31461027a57806336372c541461028f5780633a9c5712146102af5780633ccfd60b146102c257600080fd5b8063027603b11461021057806302f803b61461024757806304d88aa71461025e5780630b295b5914610271575b600080fd5b61023261021e366004613722565b600090815260096020526040902054151590565b60405190151581526020015b60405180910390f35b61025060025481565b60405190815260200161023e565b61025061026c36600461367b565b61052b565b61025060055481565b61028d610288366004613722565b610702565b005b61025061029d366004613722565b60096020526000908152604090205481565b61028d6102bd3660046135e6565b6108f9565b61028d61099c565b6102506102d836600461373a565b610aad565b61025060035481565b61028d6102f4366004613722565b610bc6565b61028d610307366004613722565b610c76565b61028d61031a366004613638565b610cd5565b61028d61032d366004613722565b610d74565b61028d6103403660046137b3565b6000805467ffffffffffffffff939093167fffffffffffffffffffffffffffffffff000000000000000000000000000000009093169290921760ff919091166801000000000000000002179055565b6103b261039d366004613722565b60009081526007602052604090205460ff1690565b60405161023e9190613a12565b61028d6103cd366004613722565b6110eb565b61028d61114a565b6103e26111b0565b60405161023e91906138f6565b61028d6103fd366004613722565b61149b565b6000546104229068010000000000000000900467ffffffffffffffff1681565b60405167ffffffffffffffff909116815260200161023e565b61028d610449366004613722565b6114fa565b61028d61045c3660046134e6565b611826565b61047461046f366004613722565b6119c1565b60405161023e9b9a99989796959493929190613a20565b6001546040516001600160a01b03909116815260200161023e565b61028d6104b4366004613507565b611bbe565b61025060065481565b61025060045481565b61028d6104d936600461376e565b612499565b6000546104229067ffffffffffffffff1681565b61028d610500366004613722565b61268c565b61028d6105133660046134e6565b612ad4565b61028d610526366004613638565b612bb3565b60006064821415610576576040830151805161054990600190613b96565b8151811061056757634e487b7160e01b600052603260045260246000fd5b602002602001015190506106fc565b60005b828460200151828151811061059e57634e487b7160e01b600052603260045260246000fd5b602002602001015110156105be57806105b681613c0e565b915050610579565b600081156106015760408501516105d6600184613b96565b815181106105f457634e487b7160e01b600052603260045260246000fd5b6020026020010151610604565b60005b85519091506106165791506106fc9050565b60008560400151838151811061063c57634e487b7160e01b600052603260045260246000fd5b6020026020010151905060008360001461068b576020870151610660600186613b96565b8151811061067e57634e487b7160e01b600052603260045260246000fd5b602002602001015161068e565b60005b90506000876020015185815181106106b657634e487b7160e01b600052603260045260246000fd5b6020026020010151905081816106cc9190613b96565b6106d68389613b96565b6106e09085613b59565b6106ea9190613b39565b6106f49085613b21565b955050505050505b92915050565b60008181526007602052604090206001815460ff16600181111561073657634e487b7160e01b600052602160045260246000fd5b146107885760405162461bcd60e51b815260206004820152601060248201527f7461736b206973206e6f74206f70656e0000000000000000000000000000000060448201526064015b60405180910390fd5b60018101546001600160a01b031633146107e45760405162461bcd60e51b815260206004820152601a60248201527f63616c6c6572206973206e6f74207468652070726f6d6f746572000000000000604482015260640161077f565b428160050154111580156107fc575080600601544211155b6108485760405162461bcd60e51b815260206004820152601c60248201527f6d75737420626520696e2076616c69642074696d652077696e646f7700000000604482015260640161077f565b6108f58282600501548360060154846007015485600b01805461086a90613bd9565b80601f016020809104026020016040519081016040528092919081815260200182805461089690613bd9565b80156108e35780601f106108b8576101008083540402835291602001916108e3565b820191906000526020600020905b8154815290600101906020018083116108c657829003601f168201915b5050505050634ed6190960e01b612d76565b5050565b6001546001600160a01b031633146109535760405162461bcd60e51b815260206004820181905260248201527f4f776e61626c653a2063616c6c6572206973206e6f7420746865206f776e6572604482015260640161077f565b6001600160a01b03919091166000908152600a6020526040902080547fffffffffffffffffffffffffffffffffffffffffffffffffffffffffffffff0016911515919091179055565b6001546001600160a01b031633146109f65760405162461bcd60e51b815260206004820181905260248201527f4f776e61626c653a2063616c6c6572206973206e6f7420746865206f776e6572604482015260640161077f565b6000610a0a6001546001600160a01b031690565b6001600160a01b03164760405160006040518083038185875af1925050503d8060008114610a54576040519150601f19603f3d011682016040523d82523d6000602084013e610a59565b606091505b5050905080610aaa5760405162461bcd60e51b815260206004820181905260248201527f62616c616e636520636f756c64206e6f74206265207472616e73666572726564604482015260640161077f565b50565b6000838152600760209081526040808320815160608101835260088201805460ff161515825260098301805485518188028101880190965280865293958795610b8c95858301939192830182828015610b2557602002820191906000526020600020905b815481526020019060010190808311610b11575b5050505050815260200160028201805480602002602001604051908101604052809291908181526020018280548015610b7d57602002820191906000526020600020905b815481526020019060010190808311610b69575b5050505050815250508561052b565b60008781526008602090815260408083206001600160a01b038a168452909152902054909150610bbc9082613b96565b9695505050505050565b6001546001600160a01b03163314610c205760405162461bcd60e51b815260206004820181905260248201527f4f776e61626c653a2063616c6c6572206973206e6f7420746865206f776e6572604482015260640161077f565b6032811115610c715760405162461bcd60e51b815260206004820152601c60248201527f6665652063616e6e6f74206265206c6172676572207468616e20352500000000604482015260640161077f565b600555565b6001546001600160a01b03163314610cd05760405162461bcd60e51b815260206004820181905260248201527f4f776e61626c653a2063616c6c6572206973206e6f7420746865206f776e6572604482015260640161077f565b600355565b600083815260076020526040902084906001815460ff166001811115610d0b57634e487b7160e01b600052602160045260246000fd5b148015610d3757506001836002811115610d3557634e487b7160e01b600052602160045260246000fd5b145b15610d6c5780547fffffffffffffffffffffffffffffffffffffffffffffffffffffffffffffff00168155610d6c8585612db0565b505050505050565b600081815260076020526040808220815161016081019092528054829060ff166001811115610db357634e487b7160e01b600052602160045260246000fd5b6001811115610dd257634e487b7160e01b600052602160045260246000fd5b815281546001600160a01b0361010091829004811660208085019190915260018501548216604080860191909152600286015490921660608086019190915260038601546080860152600486015460a0860152600586015460c0860152600686015460e08601526007860154938501939093528151928301825260088501805460ff161515845260098601805484518185028101850190955280855261012090960195919385840193909290830182828015610ead57602002820191906000526020600020905b815481526020019060010190808311610e99575b5050505050815260200160028201805480602002602001604051908101604052809291908181526020018280548015610f0557602002820191906000526020600020905b815481526020019060010190808311610ef1575b5050505050815250508152602001600b82018054610f2290613bd9565b80601f0160208091040260200160405190810160405280929190818152602001828054610f4e90613bd9565b8015610f9b5780601f10610f7057610100808354040283529160200191610f9b565b820191906000526020600020905b815481529060010190602001808311610f7e57829003601f168201915b5050505050815250509050336001600160a01b031681602001516001600160a01b03161461100b5760405162461bcd60e51b815260206004820152601960248201527f63616c6c6572206973206e6f74207468652073706f6e736f7200000000000000604482015260640161077f565b60018151600181111561102e57634e487b7160e01b600052602160045260246000fd5b1461107b5760405162461bcd60e51b815260206004820152601060248201527f7461736b206973206e6f74206f70656e00000000000000000000000000000000604482015260640161077f565b600082815260096020526040902054156110d75760405162461bcd60e51b815260206004820152601660248201527f7265766f6b6520616c72656164792070656e64696e6700000000000000000000604482015260640161077f565b506000908152600960205260409020429055565b6001546001600160a01b031633146111455760405162461bcd60e51b815260206004820181905260248201527f4f776e61626c653a2063616c6c6572206973206e6f7420746865206f776e6572604482015260640161077f565b600455565b6001546001600160a01b031633146111a45760405162461bcd60e51b815260206004820181905260248201527f4f776e61626c653a2063616c6c6572206973206e6f7420746865206f776e6572604482015260640161077f565b6111ae6000613067565b565b6060600060065467ffffffffffffffff8111156111dd57634e487b7160e01b600052604160045260246000fd5b60405190808252806020026020018201604052801561121657816020015b611203613246565b8152602001906001900390816111fb5790505b50905060005b6006548110156114955760008181526007602052604090819020815161016081019092528054829060ff16600181111561126657634e487b7160e01b600052602160045260246000fd5b600181111561128557634e487b7160e01b600052602160045260246000fd5b815281546001600160a01b0361010091829004811660208085019190915260018501548216604080860191909152600286015490921660608086019190915260038601546080860152600486015460a0860152600586015460c0860152600686015460e08601526007860154938501939093528151928301825260088501805460ff16151584526009860180548451818502810185019095528085526101209096019591938584019390929083018282801561136057602002820191906000526020600020905b81548152602001906001019080831161134c575b50505050508152602001600282018054806020026020016040519081016040528092919081815260200182805480156113b857602002820191906000526020600020905b8154815260200190600101908083116113a4575b5050505050815250508152602001600b820180546113d590613bd9565b80601f016020809104026020016040519081016040528092919081815260200182805461140190613bd9565b801561144e5780601f106114235761010080835404028352916020019161144e565b820191906000526020600020905b81548152906001019060200180831161143157829003601f168201915b50505050508152505082828151811061147757634e487b7160e01b600052603260045260246000fd5b6020026020010181905250808061148d90613c0e565b91505061121c565b50919050565b6001546001600160a01b031633146114f55760405162461bcd60e51b815260206004820181905260248201527f4f776e61626c653a2063616c6c6572206973206e6f7420746865206f776e6572604482015260640161077f565b600255565b60008181526007602052604090206001815460ff16600181111561152e57634e487b7160e01b600052602160045260246000fd5b1461157b5760405162461bcd60e51b815260206004820152601060248201527f7461736b206973206e6f74206f70656e00000000000000000000000000000000604482015260640161077f565b805461010090046001600160a01b03163314806115a4575060018101546001600160a01b031633145b6116165760405162461bcd60e51b815260206004820152602260248201527f63616c6c6572206d7573742062652073706f6e736f72206f722070726f6d6f7460448201527f6572000000000000000000000000000000000000000000000000000000000000606482015260840161077f565b805461010090046001600160a01b03163314156116cf57806005015442108061165e575042600454826007015483600601546116529190613b21565b61165c9190613b21565b105b6116cf5760405162461bcd60e51b8152602060048201526024808201527f6d75737420626520696e2076616c69642063616e63656c6c6174696f6e20706560448201527f72696f6400000000000000000000000000000000000000000000000000000000606482015260840161077f565b6004818101805460009182905583547fffffffffffffffffffffffffffffffffffffffffffffffffffffffffffffff001680855560028501546040517fa9059cbb0000000000000000000000000000000000000000000000000000000081526001600160a01b0361010090930483169581019590955260248501839052919391169063a9059cbb90604401602060405180830381600087803b15801561177457600080fd5b505af1158015611788573d6000803e3d6000fd5b505050506040513d601f19601f820116820180604052508101906117ac919061361c565b9050806118205760405162461bcd60e51b8152602060048201526024808201527f455243323020546f6b656e20636f756c64206e6f74206265207472616e73666560448201527f7272656400000000000000000000000000000000000000000000000000000000606482015260840161077f565b50505050565b6001546001600160a01b031633146118805760405162461bcd60e51b815260206004820181905260248201527f4f776e61626c653a2063616c6c6572206973206e6f7420746865206f776e6572604482015260640161077f565b6000816001600160a01b031663a9059cbb6118a36001546001600160a01b031690565b6001600160a01b038581166000908152600b60205260409081902054905160e085901b7fffffffff000000000000000000000000000000000000000000000000000000001681529290911660048301526024820152604401602060405180830381600087803b15801561191557600080fd5b505af1158015611929573d6000803e3d6000fd5b505050506040513d601f19601f8201168201806040525081019061194d919061361c565b9050806108f55760405162461bcd60e51b8152602060048201526024808201527f455243323020546f6b656e20636f756c64206e6f74206265207472616e73666560448201527f7272656400000000000000000000000000000000000000000000000000000000606482015260840161077f565b60076020528060005260406000206000915090508060000160009054906101000a900460ff16908060000160019054906101000a90046001600160a01b0316908060010160009054906101000a90046001600160a01b0316908060020160009054906101000a90046001600160a01b031690806003015490806004015490806005015490806006015490806007015490806008016040518060600160405290816000820160009054906101000a900460ff1615151515815260200160018201805480602002602001604051908101604052809291908181526020018280548015611aca57602002820191906000526020600020905b815481526020019060010190808311611ab6575b5050505050815260200160028201805480602002602001604051908101604052809291908181526020018280548015611b2257602002820191906000526020600020905b815481526020019060010190808311611b0e575b5050505050815250509080600b018054611b3b90613bd9565b80601f0160208091040260200160405190810160405280929190818152602001828054611b6790613bd9565b8015611bb45780601f10611b8957610100808354040283529160200191611bb4565b820191906000526020600020905b815481529060010190602001808311611b9757829003601f168201915b505050505090508b565b8542108015611bcc57508587105b8015611be35750600354611be08888613b96565b11155b611c2f5760405162461bcd60e51b815260206004820152601860248201527f696e76616c69642074696d65206672616d6520676976656e0000000000000000604482015260640161077f565b600254851115611ca75760405162461bcd60e51b815260206004820152602960248201527f76657374696e675465726d2063616e6e6f74206265206c6f6e6765722074686160448201527f6e20323820646179730000000000000000000000000000000000000000000000606482015260840161077f565b6001600160a01b0389166000908152600a602052604090205460ff16611d0f5760405162461bcd60e51b815260206004820152601860248201527f746f6b656e206973206e6f742077686974656c69737465640000000000000000604482015260640161077f565b60008811611d5f5760405162461bcd60e51b815260206004820152601960248201527f6465706f736974416d6f756e742063616e6e6f74206265203000000000000000604482015260640161077f565b6001600160a01b038a16331415611db85760405162461bcd60e51b815260206004820152601960248201527f70726f6d6f7465722063616e6e6f742062652073656e64657200000000000000604482015260640161077f565b8151835114611e095760405162461bcd60e51b815260206004820152601b60248201527f7469636b73206d75737420686176652073616d65206c656e6774680000000000604482015260640161077f565b60648360018551611e1a9190613b96565b81518110611e3857634e487b7160e01b600052603260045260246000fd5b602002602001015114611e8d5760405162461bcd60e51b815260206004820152601c60248201527f787469636b73206d75737420656e64206174206d61782076616c756500000000604482015260640161077f565b878260018451611e9d9190613b96565b81518110611ebb57634e487b7160e01b600052603260045260246000fd5b60200260200101511115611f375760405162461bcd60e51b815260206004820152603160248201527f746f74616c207061796f75742063616e6e6f742062652067726561746572207460448201527f68616e206465706f736974416d6f756e74000000000000000000000000000000606482015260840161077f565b6001600160a01b038a16611fc957878260018451611f559190613b96565b81518110611f7357634e487b7160e01b600052603260045260246000fd5b60200260200101511115611fc95760405162461bcd60e51b815260206004820152601960248201527f6d75737420656e6420776974682066756c6c20616d6f756e7400000000000000604482015260640161077f565b6001835111156121015760015b83518110156120ff57838181518110611fff57634e487b7160e01b600052603260045260246000fd5b6020026020010151846001836120159190613b96565b8151811061203357634e487b7160e01b600052603260045260246000fd5b60200260200101511080156120a1575082818151811061206357634e487b7160e01b600052603260045260246000fd5b6020026020010151836001836120799190613b96565b8151811061209757634e487b7160e01b600052603260045260246000fd5b6020026020010151105b6120ed5760405162461bcd60e51b815260206004820152601860248201527f7469636b73206d75737420626520696e6372656173696e670000000000000000604482015260640161077f565b806120f781613c0e565b915050611fd6565b505b6040517f23b872dd000000000000000000000000000000000000000000000000000000008152336004820152306024820152604481018990526000906001600160a01b038b16906323b872dd90606401602060405180830381600087803b15801561216b57600080fd5b505af115801561217f573d6000803e3d6000fd5b505050506040513d601f19601f820116820180604052508101906121a3919061361c565b9050806122175760405162461bcd60e51b8152602060048201526024808201527f455243323020546f6b656e20636f756c64206e6f74206265207472616e73666560448201527f7272656400000000000000000000000000000000000000000000000000000000606482015260840161077f565b600680546000918261222883613c0e565b9091555060408051606081018252881515815260208101889052808201879052815161016081019092529192508060018152602001336001600160a01b031681526020018e6001600160a01b031681526020018d6001600160a01b031681526020018c81526020018c81526020018b81526020018a8152602001898152602001828152602001858152506007600084815260200190815260200160002060008201518160000160006101000a81548160ff021916908360018111156122fd57634e487b7160e01b600052602160045260246000fd5b021790555060208281015182546001600160a01b039182166101009081027fffffffffffffffffffffff0000000000000000000000000000000000000000ff90921691909117845560408501516001850180549184167fffffffffffffffffffffffff00000000000000000000000000000000000000009283161790556060860151600286018054919094169116179091556080840151600384015560a0840151600484015560c0840151600584015560e08401516006840155830151600783015561012083015180516008840180549115157fffffffffffffffffffffffffffffffffffffffffffffffffffffffffffffff009092169190911781558183015180519293919261241492600987019201906132e0565b50604082015180516124309160028401916020909101906132e0565b505050610140820151805161244f91600b84019160209091019061332b565b50506040516001600160a01b038f169150339084907f2454c22dc684ff5512045882a113101049fde511c581e351116949e9a2ed763790600090a450505050505050505050505050565b60008281526007602052604090206001815460ff1660018111156124cd57634e487b7160e01b600052602160045260246000fd5b1461251a5760405162461bcd60e51b815260206004820152601060248201527f7461736b206973206e6f74206f70656e00000000000000000000000000000000604482015260640161077f565b60018101546001600160a01b0316156125755760405162461bcd60e51b815260206004820152601260248201527f7461736b206973206e6f74207075626c69630000000000000000000000000000604482015260640161077f565b4281600501541115801561258d575080600601544211155b6125d95760405162461bcd60e51b815260206004820152601c60248201527f6d75737420626520696e2076616c69642074696d652077696e646f7700000000604482015260640161077f565b6126878382600501548360060154846007015485600b0180546125fb90613bd9565b80601f016020809104026020016040519081016040528092919081815260200182805461262790613bd9565b80156126745780601f1061264957610100808354040283529160200191612674565b820191906000526020600020905b81548152906001019060200180831161265757829003601f168201915b505050505087634ed6190960e01b6130d1565b505050565b600081815260076020526040808220815161016081019092528054829060ff1660018111156126cb57634e487b7160e01b600052602160045260246000fd5b60018111156126ea57634e487b7160e01b600052602160045260246000fd5b815281546001600160a01b0361010091829004811660208085019190915260018501548216604080860191909152600286015490921660608086019190915260038601546080860152600486015460a0860152600586015460c0860152600686015460e08601526007860154938501939093528151928301825260088501805460ff1615158452600986018054845181850281018501909552808552610120909601959193858401939092908301828280156127c557602002820191906000526020600020905b8154815260200190600101908083116127b1575b505050505081526020016002820180548060200260200160405190810160405280929190818152602001828054801561281d57602002820191906000526020600020905b815481526020019060010190808311612809575b5050505050815250508152602001600b8201805461283a90613bd9565b80601f016020809104026020016040519081016040528092919081815260200182805461286690613bd9565b80156128b35780601f10612888576101008083540402835291602001916128b3565b820191906000526020600020905b81548152906001019060200180831161289657829003601f168201915b5050505050815250509050336001600160a01b031681602001516001600160a01b0316146129235760405162461bcd60e51b815260206004820152601960248201527f63616c6c6572206973206e6f74207468652073706f6e736f7200000000000000604482015260640161077f565b60018151600181111561294657634e487b7160e01b600052602160045260246000fd5b146129935760405162461bcd60e51b815260206004820152601060248201527f7461736b206973206e6f74206f70656e00000000000000000000000000000000604482015260640161077f565b6000828152600960205260409020546129ee5760405162461bcd60e51b815260206004820152601660248201527f7265766f6b65206d7573742062652070656e64696e6700000000000000000000604482015260640161077f565b6004546000838152600960205260409020544291612a0b91613b21565b1115612a7f5760405162461bcd60e51b815260206004820152602260248201527f6d757374207761697420666f72207265766f6b652064656c617920746f20706160448201527f7373000000000000000000000000000000000000000000000000000000000000606482015260840161077f565b60008281526009602052604081205560c081015160e08201516101008301516101408401516108f5938693909290917ff4c592d300000000000000000000000000000000000000000000000000000000612d76565b6001546001600160a01b03163314612b2e5760405162461bcd60e51b815260206004820181905260248201527f4f776e61626c653a2063616c6c6572206973206e6f7420746865206f776e6572604482015260640161077f565b6001600160a01b038116612baa5760405162461bcd60e51b815260206004820152602660248201527f4f776e61626c653a206e6577206f776e657220697320746865207a65726f206160448201527f6464726573730000000000000000000000000000000000000000000000000000606482015260840161077f565b610aaa81613067565b600083815260076020526040902084906001815460ff166001811115612be957634e487b7160e01b600052602160045260246000fd5b148015612c1557506000836002811115612c1357634e487b7160e01b600052602160045260246000fd5b145b15610d6c576004818101805460009182905583547fffffffffffffffffffffffffffffffffffffffffffffffffffffffffffffff001680855560028501546040517fa9059cbb0000000000000000000000000000000000000000000000000000000081526001600160a01b0361010090930483169581019590955260248501839052919391169063a9059cbb906044015b602060405180830381600087803b158015612cc057600080fd5b505af1158015612cd4573d6000803e3d6000fd5b505050506040513d601f19601f82011682018060405250810190612cf8919061361c565b905080612d6c5760405162461bcd60e51b8152602060048201526024808201527f455243323020546f6b656e20636f756c64206e6f74206265207472616e73666560448201527f7272656400000000000000000000000000000000000000000000000000000000606482015260840161077f565b5050505050505050565b612d80868261310c565b5050600080547fffffffffffffffffffffffffffffffff0000000000000000000000000000000016905550505050565b600082815260076020526040902060018101546001600160a01b0316612de657634e487b7160e01b600052600160045260246000fd5b6040805160608101825260088301805460ff16151582526009840180548451602082810282018101909652818152600095612eb9959493818601939091830182828015612e5257602002820191906000526020600020905b815481526020019060010190808311612e3e575b5050505050815260200160028201805480602002602001604051908101604052809291908181526020018280548015612eaa57602002820191906000526020600020905b815481526020019060010190808311612e96575b5050505050815250508461052b565b600085815260086020908152604080832060018701546001600160a01b0316845290915281205491925090612eee9083613b96565b90508260040154811115612f695760405162461bcd60e51b8152602060048201526024808201527f7061796f75742063616e6e6f74206265206c6172676572207468616e2062616c60448201527f616e636500000000000000000000000000000000000000000000000000000000606482015260840161077f565b80836004016000828254612f7d9190613b96565b9091555050600085815260086020908152604080832060018701546001600160a01b0316845290915281208390556005546103e890612fbc9084613b59565b612fc69190613b39565b90506000612fd48284613b96565b60028601546001600160a01b03166000908152600b6020526040812080549293508492909190613005908490613b21565b9091555050600285015460018601546040517fa9059cbb0000000000000000000000000000000000000000000000000000000081526001600160a01b03918216600482015260248101849052600092919091169063a9059cbb90604401612ca6565b600180546001600160a01b038381167fffffffffffffffffffffffff0000000000000000000000000000000000000000831681179093556040519116919082907f8be0079c531659141344cd1fd0a4f28419497f9722a3daafe3b4186f6b6457e090600090a35050565b6130db878261310c565b5050600080547fffffffffffffffffffffffffffffffff000000000000000000000000000000001690555050505050565b6000805460408051602481018490526044810186905267ffffffffffffffff8084166064830152680100000000000000009093049092166084808401919091528151808403909101815260a490920181526020820180517bffffffffffffffffffffffffffffffffffffffffffffffffffffffff167fffffffff0000000000000000000000000000000000000000000000000000000086161790525130916131b3916138da565b6000604051808303816000865af19150503d80600081146131f0576040519150601f19603f3d011682016040523d82523d6000602084013e6131f5565b606091505b50509050806126875760405162461bcd60e51b815260206004820152601e60248201527f636f756c64206e6f742063616c6c2066756c66696c6c53656c6563746f720000604482015260640161077f565b604080516101608101909152806000815260200160006001600160a01b0316815260200160006001600160a01b0316815260200160006001600160a01b0316815260200160008152602001600081526020016000815260200160008152602001600081526020016132d3604051806060016040528060001515815260200160608152602001606081525090565b8152602001606081525090565b82805482825590600052602060002090810192821561331b579160200282015b8281111561331b578251825591602001919060010190613300565b5061332792915061339e565b5090565b82805461333790613bd9565b90600052602060002090601f016020900481019282613359576000855561331b565b82601f1061337257805160ff191683800117855561331b565b8280016001018555821561331b579182018281111561331b578251825591602001919060010190613300565b5b80821115613327576000815560010161339f565b80356001600160a01b03811681146133ca57600080fd5b919050565b600082601f8301126133df578081fd5b8135602067ffffffffffffffff8211156133fb576133fb613c5d565b8160051b61340a828201613ad2565b838152828101908684018388018501891015613424578687fd5b8693505b85841015613446578035835260019390930192918401918401613428565b50979650505050505050565b80356133ca81613c73565b600082601f83011261346d578081fd5b813567ffffffffffffffff81111561348757613487613c5d565b6134b860207fffffffffffffffffffffffffffffffffffffffffffffffffffffffffffffffe0601f84011601613ad2565b8181528460208386010111156134cc578283fd5b816020850160208301379081016020019190915292915050565b6000602082840312156134f7578081fd5b613500826133b3565b9392505050565b6000806000806000806000806000806101408b8d031215613526578586fd5b61352f8b6133b3565b995061353d60208c016133b3565b985060408b0135975060608b0135965060808b0135955060a08b0135945061356760c08c01613452565b935060e08b013567ffffffffffffffff80821115613583578485fd5b61358f8e838f016133cf565b94506101008d01359150808211156135a5578384fd5b6135b18e838f016133cf565b93506101208d01359150808211156135c7578283fd5b506135d48d828e0161345d565b9150509295989b9194979a5092959850565b600080604083850312156135f8578182fd5b613601836133b3565b9150602083013561361181613c73565b809150509250929050565b60006020828403121561362d578081fd5b815161350081613c73565b6000806000806080858703121561364d578384fd5b843593506020850135925060408501359150606085013560038110613670578182fd5b939692955090935050565b6000806040838503121561368d578182fd5b823567ffffffffffffffff808211156136a4578384fd5b90840190606082870312156136b7578384fd5b6136bf613aa9565b82356136ca81613c73565b81526020830135828111156136dd578586fd5b6136e9888286016133cf565b602083015250604083013582811115613700578586fd5b61370c888286016133cf565b6040830152509660209590950135955050505050565b600060208284031215613733578081fd5b5035919050565b60008060006060848603121561374e578283fd5b8335925061375e602085016133b3565b9150604084013590509250925092565b60008060408385031215613780578182fd5b82359150602083013567ffffffffffffffff81111561379d578182fd5b6137a98582860161345d565b9150509250929050565b600080604083850312156137c5578182fd5b823567ffffffffffffffff811681146137dc578283fd5b9150602083013560ff81168114613611578182fd5b6000815180845260208085019450808401835b8381101561382057815187529582019590820190600101613804565b509495945050505050565b6002811061384957634e487b7160e01b600052602160045260246000fd5b9052565b60008151808452613865816020860160208601613bad565b601f017fffffffffffffffffffffffffffffffffffffffffffffffffffffffffffffffe0169290920160200192915050565b80511515825260006020820151606060208501526138b860608501826137f1565b9050604083015184820360408601526138d182826137f1565b95945050505050565b600082516138ec818460208701613bad565b9190910192915050565b60006020808301818452808551808352604092508286019150828160051b870101848801865b83811015613a04577fffffffffffffffffffffffffffffffffffffffffffffffffffffffffffffffc0898403018552815161016061395b85835161382b565b888201516001600160a01b03908116868b015288830151811689870152606080840151909116908601526080808301519086015260a0808301519086015260c0808301519086015260e080830151908601526101008083015190860152610120808301518187018390526139d183880182613897565b9250505061014080830151925085820381870152506139f0818361384d565b96890196945050509086019060010161391c565b509098975050505050505050565b602081016106fc828461382b565b6000610160613a2f838f61382b565b6001600160a01b03808e166020850152808d166040850152808c166060850152508960808401528860a08401528760c08401528660e08401528561010084015280610120840152613a8281840186613897565b9050828103610140840152613a97818561384d565b9e9d5050505050505050505050505050565b6040516060810167ffffffffffffffff81118282101715613acc57613acc613c5d565b60405290565b604051601f82017fffffffffffffffffffffffffffffffffffffffffffffffffffffffffffffffe016810167ffffffffffffffff81118282101715613b1957613b19613c5d565b604052919050565b60008219821115613b3457613b34613c47565b500190565b600082613b5457634e487b7160e01b81526012600452602481fd5b500490565b6000817fffffffffffffffffffffffffffffffffffffffffffffffffffffffffffffffff0483118215151615613b9157613b91613c47565b500290565b600082821015613ba857613ba8613c47565b500390565b60005b83811015613bc8578181015183820152602001613bb0565b838111156118205750506000910152565b600181811c90821680613bed57607f821691505b6020821081141561149557634e487b7160e01b600052602260045260246000fd5b60007fffffffffffffffffffffffffffffffffffffffffffffffffffffffffffffffff821415613c4057613c40613c47565b5060010190565b634e487b7160e01b600052601160045260246000fd5b634e487b7160e01b600052604160045260246000fd5b8015158114610aaa57600080fdfea2646970667358221220898460b9894ac779b4aee0526ad561f9d6d2b863dac1f24dc135d546fd259e6f64736f6c63430008040033",
  "linkReferences": {},
  "deployedLinkReferences": {}
}