{
  "_format": "hh-sol-artifact-1",
  "contractName": "TruPr",
  "sourceName": "contracts/TruPr.sol",
  "abi": [
    {
      "inputs": [
        {
          "internalType": "address",
          "name": "oracle",
          "type": "address"
        },
        {
          "internalType": "address[]",
          "name": "_tokenWhitelist",
          "type": "address[]"
        }
      ],
      "stateMutability": "nonpayable",
      "type": "constructor"
    },
    {
      "anonymous": false,
      "inputs": [
        {
          "indexed": true,
          "internalType": "bytes32",
          "name": "id",
          "type": "bytes32"
        }
      ],
      "name": "ChainlinkCancelled",
      "type": "event"
    },
    {
      "anonymous": false,
      "inputs": [
        {
          "indexed": true,
          "internalType": "bytes32",
          "name": "id",
          "type": "bytes32"
        }
      ],
      "name": "ChainlinkFulfilled",
      "type": "event"
    },
    {
      "anonymous": false,
      "inputs": [
        {
          "indexed": true,
          "internalType": "bytes32",
          "name": "id",
          "type": "bytes32"
        }
      ],
      "name": "ChainlinkRequested",
      "type": "event"
    },
    {
      "anonymous": false,
      "inputs": [
        {
          "indexed": true,
          "internalType": "address",
          "name": "previousOwner",
          "type": "address"
        },
        {
          "indexed": true,
          "internalType": "address",
          "name": "newOwner",
          "type": "address"
        }
      ],
      "name": "OwnershipTransferred",
      "type": "event"
    },
    {
      "anonymous": false,
      "inputs": [
        {
          "indexed": true,
          "internalType": "uint256",
          "name": "taskId",
          "type": "uint256"
        },
        {
          "indexed": true,
          "internalType": "address",
          "name": "sponsor",
          "type": "address"
        },
        {
          "indexed": true,
          "internalType": "address",
          "name": "promoter",
          "type": "address"
        }
      ],
      "name": "TaskCreated",
      "type": "event"
    },
    {
      "inputs": [],
      "name": "MaxTimeWindow",
      "outputs": [
        {
          "internalType": "uint256",
          "name": "",
          "type": "uint256"
        }
      ],
      "stateMutability": "view",
      "type": "function"
    },
    {
      "inputs": [],
      "name": "Maxcliff",
      "outputs": [
        {
          "internalType": "uint256",
          "name": "",
          "type": "uint256"
        }
      ],
      "stateMutability": "view",
      "type": "function"
    },
    {
      "inputs": [],
      "name": "PendingRevokeDelay",
      "outputs": [
        {
          "internalType": "uint256",
          "name": "",
          "type": "uint256"
        }
      ],
      "stateMutability": "view",
      "type": "function"
    },
    {
      "inputs": [
        {
          "internalType": "address",
          "name": "_address",
          "type": "address"
        }
      ],
      "name": "addressToString",
      "outputs": [
        {
          "internalType": "string",
          "name": "",
          "type": "string"
        }
      ],
      "stateMutability": "pure",
      "type": "function"
    },
    {
      "inputs": [],
      "name": "baseFeePerMille",
      "outputs": [
        {
          "internalType": "uint256",
          "name": "",
          "type": "uint256"
        }
      ],
      "stateMutability": "view",
      "type": "function"
    },
    {
      "inputs": [
        {
          "internalType": "uint256",
          "name": "taskId",
          "type": "uint256"
        },
        {
          "internalType": "address",
          "name": "who",
          "type": "address"
        },
        {
          "internalType": "uint256",
          "name": "score",
          "type": "uint256"
        }
      ],
      "name": "calculateRewards",
      "outputs": [
        {
          "internalType": "uint256",
          "name": "",
          "type": "uint256"
        }
      ],
      "stateMutability": "view",
      "type": "function"
    },
    {
      "inputs": [
        {
          "internalType": "uint256",
          "name": "taskId",
          "type": "uint256"
        }
      ],
      "name": "cancelTask",
      "outputs": [],
      "stateMutability": "nonpayable",
      "type": "function"
    },
    {
      "inputs": [
        {
          "internalType": "address",
          "name": "promoter",
          "type": "address"
        },
        {
          "internalType": "address",
          "name": "erc20Token",
          "type": "address"
        },
        {
          "internalType": "uint256",
          "name": "depositAmount",
          "type": "uint256"
        },
        {
          "internalType": "uint256",
          "name": "startDate",
          "type": "uint256"
        },
        {
          "internalType": "uint256",
          "name": "endDate",
          "type": "uint256"
        },
        {
          "internalType": "uint256",
          "name": "cliff",
          "type": "uint256"
        },
        {
          "internalType": "bool",
          "name": "linearRate",
          "type": "bool"
        },
        {
          "internalType": "uint256[]",
          "name": "xticks",
          "type": "uint256[]"
        },
        {
          "internalType": "uint256[]",
          "name": "yticks",
          "type": "uint256[]"
        },
        {
          "internalType": "string",
          "name": "data",
          "type": "string"
        }
      ],
      "name": "createTask",
      "outputs": [],
      "stateMutability": "nonpayable",
      "type": "function"
    },
    {
      "inputs": [
        {
          "components": [
            {
              "internalType": "bool",
              "name": "linear",
              "type": "bool"
            },
            {
              "internalType": "uint256[]",
              "name": "x",
              "type": "uint256[]"
            },
            {
              "internalType": "uint256[]",
              "name": "y",
              "type": "uint256[]"
            }
          ],
          "internalType": "struct ScoreFnData",
          "name": "self",
          "type": "tuple"
        },
        {
          "internalType": "uint256",
          "name": "x",
          "type": "uint256"
        }
      ],
      "name": "evaluateScore",
      "outputs": [
        {
          "internalType": "uint256",
          "name": "",
          "type": "uint256"
        }
      ],
      "stateMutability": "pure",
      "type": "function"
    },
    {
      "inputs": [
        {
          "internalType": "uint256",
          "name": "taskId",
          "type": "uint256"
        }
      ],
      "name": "fulfillTask",
      "outputs": [],
      "stateMutability": "nonpayable",
      "type": "function"
    },
    {
      "inputs": [
        {
          "internalType": "bytes32",
          "name": "requestId",
          "type": "bytes32"
        },
        {
          "internalType": "uint256",
          "name": "taskId",
          "type": "uint256"
        },
        {
          "internalType": "uint256",
          "name": "score",
          "type": "uint256"
        },
        {
          "internalType": "enum ResponseStatus",
          "name": "response",
          "type": "uint8"
        }
      ],
      "name": "fulfillTaskCallback",
      "outputs": [],
      "stateMutability": "nonpayable",
      "type": "function"
    },
    {
      "inputs": [
        {
          "internalType": "bytes32",
          "name": "requestId",
          "type": "bytes32"
        },
        {
          "internalType": "uint256",
          "name": "taskId",
          "type": "uint256"
        },
        {
          "internalType": "string",
          "name": "userId",
          "type": "string"
        },
        {
          "internalType": "uint256",
          "name": "score",
          "type": "uint256"
        },
        {
          "internalType": "enum ResponseStatus",
          "name": "response",
          "type": "uint8"
        }
      ],
      "name": "fulfillTaskCallbackPublic",
      "outputs": [],
      "stateMutability": "nonpayable",
      "type": "function"
    },
    {
      "inputs": [
        {
          "internalType": "uint256",
          "name": "taskId",
          "type": "uint256"
        },
        {
          "internalType": "string",
          "name": "userId",
          "type": "string"
        }
      ],
      "name": "fulfillTaskPublic",
      "outputs": [],
      "stateMutability": "nonpayable",
      "type": "function"
    },
    {
      "inputs": [],
      "name": "getAllTaskAndState",
      "outputs": [
        {
          "components": [
            {
              "internalType": "enum Status",
              "name": "status",
              "type": "uint8"
            },
            {
              "internalType": "address",
              "name": "sponsor",
              "type": "address"
            },
            {
              "internalType": "address",
              "name": "promoter",
              "type": "address"
            },
            {
              "internalType": "address",
              "name": "erc20Token",
              "type": "address"
            },
            {
              "internalType": "uint256",
              "name": "depositAmount",
              "type": "uint256"
            },
            {
              "internalType": "uint256",
              "name": "balance",
              "type": "uint256"
            },
            {
              "internalType": "uint256",
              "name": "startDate",
              "type": "uint256"
            },
            {
              "internalType": "uint256",
              "name": "endDate",
              "type": "uint256"
            },
            {
              "internalType": "uint256",
              "name": "cliff",
              "type": "uint256"
            },
            {
              "components": [
                {
                  "internalType": "bool",
                  "name": "linear",
                  "type": "bool"
                },
                {
                  "internalType": "uint256[]",
                  "name": "x",
                  "type": "uint256[]"
                },
                {
                  "internalType": "uint256[]",
                  "name": "y",
                  "type": "uint256[]"
                }
              ],
              "internalType": "struct ScoreFnData",
              "name": "vesting",
              "type": "tuple"
            },
            {
              "internalType": "string",
              "name": "data",
              "type": "string"
            }
          ],
          "internalType": "struct Task[]",
          "name": "",
          "type": "tuple[]"
        },
        {
          "internalType": "uint256[]",
          "name": "",
          "type": "uint256[]"
        }
      ],
      "stateMutability": "view",
      "type": "function"
    },
    {
      "inputs": [
        {
          "internalType": "uint256",
          "name": "taskId",
          "type": "uint256"
        }
      ],
      "name": "getStatus",
      "outputs": [
        {
          "internalType": "enum Status",
          "name": "",
          "type": "uint8"
        }
      ],
      "stateMutability": "view",
      "type": "function"
    },
    {
      "inputs": [
        {
          "internalType": "uint256",
          "name": "taskId",
          "type": "uint256"
        }
      ],
      "name": "isPendingRevoke",
      "outputs": [
        {
          "internalType": "bool",
          "name": "time",
          "type": "bool"
        }
      ],
      "stateMutability": "view",
      "type": "function"
    },
    {
      "inputs": [],
      "name": "owner",
      "outputs": [
        {
          "internalType": "address",
          "name": "",
          "type": "address"
        }
      ],
      "stateMutability": "view",
      "type": "function"
    },
    {
      "inputs": [
        {
          "internalType": "uint256",
          "name": "",
          "type": "uint256"
        }
      ],
      "name": "pendingRevokeTime",
      "outputs": [
        {
          "internalType": "uint256",
          "name": "",
          "type": "uint256"
        }
      ],
      "stateMutability": "view",
      "type": "function"
    },
    {
      "inputs": [],
      "name": "renounceOwnership",
      "outputs": [],
      "stateMutability": "nonpayable",
      "type": "function"
    },
    {
      "inputs": [
        {
          "internalType": "uint256",
          "name": "taskId",
          "type": "uint256"
        }
      ],
      "name": "requestRevokeTask",
      "outputs": [],
      "stateMutability": "nonpayable",
      "type": "function"
    },
    {
      "inputs": [
        {
          "internalType": "uint256",
          "name": "taskId",
          "type": "uint256"
        }
      ],
      "name": "revokeTask",
      "outputs": [],
      "stateMutability": "nonpayable",
      "type": "function"
    },
    {
      "inputs": [
        {
          "internalType": "bytes32",
          "name": "requestId",
          "type": "bytes32"
        },
        {
          "internalType": "uint256",
          "name": "taskId",
          "type": "uint256"
        },
        {
          "internalType": "uint256",
          "name": "score",
          "type": "uint256"
        },
        {
          "internalType": "enum ResponseStatus",
          "name": "response",
          "type": "uint8"
        }
      ],
      "name": "revokeTaskCallback",
      "outputs": [],
      "stateMutability": "nonpayable",
      "type": "function"
    },
    {
      "inputs": [
        {
          "internalType": "uint256",
          "name": "feePerMille",
          "type": "uint256"
        }
      ],
      "name": "setBaseFee",
      "outputs": [],
      "stateMutability": "nonpayable",
      "type": "function"
    },
    {
      "inputs": [
        {
          "internalType": "uint256",
          "name": "time",
          "type": "uint256"
        }
      ],
      "name": "setMaxTimeWindow",
      "outputs": [],
      "stateMutability": "nonpayable",
      "type": "function"
    },
    {
      "inputs": [
        {
          "internalType": "uint256",
          "name": "term",
          "type": "uint256"
        }
      ],
      "name": "setMaxcliff",
      "outputs": [],
      "stateMutability": "nonpayable",
      "type": "function"
    },
    {
      "inputs": [
        {
          "internalType": "uint256",
          "name": "delay",
          "type": "uint256"
        }
      ],
      "name": "setPendingRevokeDelay",
      "outputs": [],
      "stateMutability": "nonpayable",
      "type": "function"
    },
    {
      "inputs": [
        {
          "internalType": "address",
          "name": "token",
          "type": "address"
        },
        {
          "internalType": "bool",
          "name": "allowed",
          "type": "bool"
        }
      ],
      "name": "setTokenWhitelisted",
      "outputs": [],
      "stateMutability": "nonpayable",
      "type": "function"
    },
    {
      "inputs": [],
      "name": "taskCount",
      "outputs": [
        {
          "internalType": "uint256",
          "name": "",
          "type": "uint256"
        }
      ],
      "stateMutability": "view",
      "type": "function"
    },
    {
      "inputs": [
        {
          "internalType": "uint256",
          "name": "",
          "type": "uint256"
        }
      ],
      "name": "tasks",
      "outputs": [
        {
          "internalType": "enum Status",
          "name": "status",
          "type": "uint8"
        },
        {
          "internalType": "address",
          "name": "sponsor",
          "type": "address"
        },
        {
          "internalType": "address",
          "name": "promoter",
          "type": "address"
        },
        {
          "internalType": "address",
          "name": "erc20Token",
          "type": "address"
        },
        {
          "internalType": "uint256",
          "name": "depositAmount",
          "type": "uint256"
        },
        {
          "internalType": "uint256",
          "name": "balance",
          "type": "uint256"
        },
        {
          "internalType": "uint256",
          "name": "startDate",
          "type": "uint256"
        },
        {
          "internalType": "uint256",
          "name": "endDate",
          "type": "uint256"
        },
        {
          "internalType": "uint256",
          "name": "cliff",
          "type": "uint256"
        },
        {
          "components": [
            {
              "internalType": "bool",
              "name": "linear",
              "type": "bool"
            },
            {
              "internalType": "uint256[]",
              "name": "x",
              "type": "uint256[]"
            },
            {
              "internalType": "uint256[]",
              "name": "y",
              "type": "uint256[]"
            }
          ],
          "internalType": "struct ScoreFnData",
          "name": "vesting",
          "type": "tuple"
        },
        {
          "internalType": "string",
          "name": "data",
          "type": "string"
        }
      ],
      "stateMutability": "view",
      "type": "function"
    },
    {
      "inputs": [
        {
          "internalType": "address",
          "name": "",
          "type": "address"
        }
      ],
      "name": "tokenWhitelist",
      "outputs": [
        {
          "internalType": "bool",
          "name": "",
          "type": "bool"
        }
      ],
      "stateMutability": "view",
      "type": "function"
    },
    {
      "inputs": [
        {
          "internalType": "address",
          "name": "newOwner",
          "type": "address"
        }
      ],
      "name": "transferOwnership",
      "outputs": [],
      "stateMutability": "nonpayable",
      "type": "function"
    },
    {
      "inputs": [],
      "name": "withdraw",
      "outputs": [],
      "stateMutability": "nonpayable",
      "type": "function"
    },
    {
      "inputs": [],
      "name": "withdrawLink",
      "outputs": [],
      "stateMutability": "nonpayable",
      "type": "function"
    },
    {
      "inputs": [
        {
          "internalType": "address",
          "name": "token",
          "type": "address"
        }
      ],
      "name": "withdrawToken",
      "outputs": [],
      "stateMutability": "nonpayable",
      "type": "function"
    }
  ],
  "bytecode": "0x60806040526001600455600880546001600160a01b03191673a36085f69e2889c224210f603d836748e7dc00881790557f63316334366632663930636234316435623933303662343639666133356563396009557f6236636538663133626464313465316439326166613136356539333263343763600a557f6538633637323235663365313431393162386538623565663562643563663435600b5567016345785d8a0000600c556224ea00600e556303aaac00600f556201518060105560326011556000601255348015620000d457600080fd5b506040516200595a3803806200595a833981016040819052620000f791620002ff565b60068054336001600160a01b031991821617909155600780549091166001600160a01b038416179055816200012b620001bb565b5062000137336200026c565b60005b8151811015620001b2576001601860008484815181106200016b57634e487b7160e01b600052603260045260246000fd5b6020908102919091018101516001600160a01b03168252810191909152604001600020805460ff191691151591909117905580620001a981620003ea565b9150506200013a565b50505062000428565b6200026a73c89bd4e1632d3a43cb03aaad5262cbe4038bc5716001600160a01b03166338cc48316040518163ffffffff1660e01b815260040160206040518083038186803b1580156200020d57600080fd5b505afa15801562000222573d6000803e3d6000fd5b505050506040513d601f19601f82011682018060405250810190620002489190620002db565b600280546001600160a01b0319166001600160a01b0392909216919091179055565b565b600d80546001600160a01b038381166001600160a01b0319831681179093556040519116919082907f8be0079c531659141344cd1fd0a4f28419497f9722a3daafe3b4186f6b6457e090600090a35050565b80516001600160a01b0381168114620002d657600080fd5b919050565b600060208284031215620002ed578081fd5b620002f882620002be565b9392505050565b6000806040838503121562000312578081fd5b6200031d83620002be565b602084810151919350906001600160401b03808211156200033c578384fd5b818601915086601f83011262000350578384fd5b81518181111562000365576200036562000412565b8060051b604051601f19603f830116810181811085821117156200038d576200038d62000412565b604052828152858101935084860182860187018b1015620003ac578788fd5b8795505b83861015620003d957620003c481620002be565b855260019590950194938601938601620003b0565b508096505050505050509250929050565b60006000198214156200040b57634e487b7160e01b81526011600452602481fd5b5060010190565b634e487b7160e01b600052604160045260246000fd5b61552280620004386000396000f3fe608060405234801561001057600080fd5b50600436106102265760003560e01c806370aab8fd1161012a5780639653ed7e116100bd578063d7864cff1161008c578063f2fde38b11610071578063f2fde38b146104bf578063f4c592d3146104d2578063f8f156aa146104e557600080fd5b8063d7864cff14610499578063f2c80466146104ac57600080fd5b80639653ed7e1461046b578063b6cb58a51461047e578063b9b4ef8614610487578063c20d096c1461049057600080fd5b806389476069116100f9578063894760691461040b5780638d9776721461041e5780638da5cb5b146104485780638dc654a21461046357600080fd5b806370aab8fd146103ba578063715018a6146103cd578063753d7563146103d55780637eec20a8146103f857600080fd5b806345b7c6fc116101bd5780634ed619091161018c57806352da02eb1161017157806352da02eb146103575780635c622a0e1461036a5780635e57966d1461039a57600080fd5b80634ed61909146103315780635217e2f01461034457600080fd5b806345b7c6fc146102ef578063465efce214610302578063468606981461030b5780634ce0a2cd1461031e57600080fd5b80630c7dbbe3116101f95780630c7dbbe3146102a15780633a9c5712146102b45780633ccfd60b146102c757806344cd8092146102cf57600080fd5b8063027603b11461022b57806304d88aa71461026257806305e31fbc146102835780630b295b5914610298575b600080fd5b61024d610239366004614dbb565b600090815260156020526040902054151590565b60405190151581526020015b60405180910390f35b610275610270366004614d14565b6104fb565b604051908152602001610259565b610296610291366004614c6d565b61070a565b005b61027560115481565b6102966102af366004614dbb565b610c2f565b6102966102c2366004614c1b565b610e21565b610296610ec4565b6102756102dd366004614dbb565b60156020526000908152604090205481565b6102756102fd366004614deb565b610fd5565b610275600f5481565b610296610319366004614dbb565b6110ee565b61029661032c366004614dbb565b61119e565b61029661033f366004614cd6565b6111fd565b610296610352366004614dbb565b61165d565b610296610365366004614dbb565b6116bc565b61038d610378366004614dbb565b60009081526013602052604090205460ff1690565b6040516102599190615125565b6103ad6103a8366004614b22565b611a33565b60405161025991906151bc565b6102966103c8366004614dbb565b611d7b565b610296611dda565b61024d6103e3366004614b22565b60186020526000908152604090205460ff1681565b610296610406366004614dbb565b611e40565b610296610419366004614b22565b61216c565b61043161042c366004614dbb565b612317565b6040516102599b9a99989796959493929190615133565b600d546040516001600160a01b039091168152602001610259565b610296612514565b610296610479366004614b3c565b61265e565b61027560125481565b610275600e5481565b61027560105481565b6102966104a7366004614e1f565b612eb9565b6102966104ba366004614dbb565b613100565b6102966104cd366004614b22565b613548565b6102966104e0366004614cd6565b613627565b6104ed6138d0565b604051610259929190614ff9565b6020820151805160009190610512906001906153d7565b8151811061053057634e487b7160e01b600052603260045260246000fd5b6020026020010151821061057e5760408301518051610551906001906153d7565b8151811061056f57634e487b7160e01b600052603260045260246000fd5b60200260200101519050610704565b60005b82846020015182815181106105a657634e487b7160e01b600052603260045260246000fd5b602002602001015110156105c657806105be8161544f565b915050610581565b600081156106095760408501516105de6001846153d7565b815181106105fc57634e487b7160e01b600052603260045260246000fd5b602002602001015161060c565b60005b855190915061061e5791506107049050565b60008560400151838151811061064457634e487b7160e01b600052603260045260246000fd5b602002602001015190506000836000146106935760208701516106686001866153d7565b8151811061068657634e487b7160e01b600052603260045260246000fd5b6020026020010151610696565b60005b90506000876020015185815181106106be57634e487b7160e01b600052603260045260246000fd5b6020026020010151905081816106d491906153d7565b6106de83896153d7565b6106e8908561539a565b6106f2919061525f565b6106fc9085615247565b955050505050505b92915050565b60008581526005602052604090205485906001600160a01b0316331461079d5760405162461bcd60e51b815260206004820152602860248201527f536f75726365206d75737420626520746865206f7261636c65206f662074686560448201527f207265717565737400000000000000000000000000000000000000000000000060648201526084015b60405180910390fd5b60008181526005602052604080822080547fffffffffffffffffffffffff00000000000000000000000000000000000000001690555182917f7cc135e0cebb02c3480ae5d74d377283180a2601f8f644edf7987b009316c63a91a2600085815260136020526040902060018101546001600160a01b03161561082f57634e487b7160e01b600052600160045260246000fd5b6001815460ff16600181111561085557634e487b7160e01b600052602160045260246000fd5b1480156108815750600183600281111561087f57634e487b7160e01b600052602160045260246000fd5b145b80156108ba57506000868152601660205260409081902090516108a5908790614f39565b9081526040519081900360200190205460ff16155b15610c2657600160166000888152602001908152602001600020866040516108e29190614f39565b908152604080516020928190038301812080547fffffffffffffffffffffffffffffffffffffffffffffffffffffffffffffff001694151594909417909355600089815260179092528120909161093a908890614f39565b90815260408051602092819003830181205460608201835260088601805460ff16151583526009870180548551818802810188019096528086526001600160a01b039093169650600095610a269592938186019392918301828280156109bf57602002820191906000526020600020905b8154815260200190600101908083116109ab575b5050505050815260200160028201805480602002602001604051908101604052809291908181526020018280548015610a1757602002820191906000526020600020905b815481526020019060010190808311610a03575b505050505081525050876104fb565b60008981526014602090815260408083206001600160a01b038716845290915281205491925090610a5790836153d7565b90508360040154811115610a6c575060048301545b80846004016000828254610a8091906153d7565b909155505060008981526014602090815260408083206001600160a01b038716845290915281208390556011546103e890610abb908461539a565b610ac5919061525f565b90506000610ad382846153d7565b60028701546001600160a01b0316600090815260196020526040812080549293508492909190610b04908490615247565b909155505060028601546040517fa9059cbb0000000000000000000000000000000000000000000000000000000081526001600160a01b03878116600483015260248201849052600092169063a9059cbb90604401602060405180830381600087803b158015610b7357600080fd5b505af1158015610b87573d6000803e3d6000fd5b505050506040513d601f19601f82011682018060405250810190610bab9190614c51565b905080610c1f5760405162461bcd60e51b8152602060048201526024808201527f455243323020546f6b656e20636f756c64206e6f74206265207472616e73666560448201527f72726564000000000000000000000000000000000000000000000000000000006064820152608401610794565b5050505050505b50505050505050565b60008181526013602052604090206001815460ff166001811115610c6357634e487b7160e01b600052602160045260246000fd5b14610cb05760405162461bcd60e51b815260206004820152601060248201527f7461736b206973206e6f74206f70656e000000000000000000000000000000006044820152606401610794565b60018101546001600160a01b03163314610d0c5760405162461bcd60e51b815260206004820152601a60248201527f63616c6c6572206973206e6f74207468652070726f6d6f7465720000000000006044820152606401610794565b42816005015411158015610d24575080600601544211155b610d705760405162461bcd60e51b815260206004820152601c60248201527f6d75737420626520696e2076616c69642074696d652077696e646f77000000006044820152606401610794565b610e1d8282600501548360060154846007015485600b018054610d929061541a565b80601f0160208091040260200160405190810160405280929190818152602001828054610dbe9061541a565b8015610e0b5780601f10610de057610100808354040283529160200191610e0b565b820191906000526020600020905b815481529060010190602001808311610dee57829003601f168201915b5050505050634ed6190960e01b613c55565b5050565b600d546001600160a01b03163314610e7b5760405162461bcd60e51b815260206004820181905260248201527f4f776e61626c653a2063616c6c6572206973206e6f7420746865206f776e65726044820152606401610794565b6001600160a01b0391909116600090815260186020526040902080547fffffffffffffffffffffffffffffffffffffffffffffffffffffffffffffff0016911515919091179055565b600d546001600160a01b03163314610f1e5760405162461bcd60e51b815260206004820181905260248201527f4f776e61626c653a2063616c6c6572206973206e6f7420746865206f776e65726044820152606401610794565b6000610f32600d546001600160a01b031690565b6001600160a01b03164760405160006040518083038185875af1925050503d8060008114610f7c576040519150601f19603f3d011682016040523d82523d6000602084013e610f81565b606091505b5050905080610fd25760405162461bcd60e51b815260206004820181905260248201527f62616c616e636520636f756c64206e6f74206265207472616e736665727265646044820152606401610794565b50565b6000838152601360209081526040808320815160608101835260088201805460ff1615158252600983018054855181880281018801909652808652939587956110b49585830193919283018282801561104d57602002820191906000526020600020905b815481526020019060010190808311611039575b50505050508152602001600282018054806020026020016040519081016040528092919081815260200182805480156110a557602002820191906000526020600020905b815481526020019060010190808311611091575b505050505081525050856104fb565b60008781526014602090815260408083206001600160a01b038a1684529091529020549091506110e490826153d7565b9695505050505050565b600d546001600160a01b031633146111485760405162461bcd60e51b815260206004820181905260248201527f4f776e61626c653a2063616c6c6572206973206e6f7420746865206f776e65726044820152606401610794565b60328111156111995760405162461bcd60e51b815260206004820152601c60248201527f6665652063616e6e6f74206265206c6172676572207468616e203525000000006044820152606401610794565b601155565b600d546001600160a01b031633146111f85760405162461bcd60e51b815260206004820181905260248201527f4f776e61626c653a2063616c6c6572206973206e6f7420746865206f776e65726044820152606401610794565b600f55565b60008481526005602052604090205484906001600160a01b0316331461128b5760405162461bcd60e51b815260206004820152602860248201527f536f75726365206d75737420626520746865206f7261636c65206f662074686560448201527f20726571756573740000000000000000000000000000000000000000000000006064820152608401610794565b60008181526005602052604080822080547fffffffffffffffffffffffff00000000000000000000000000000000000000001690555182917f7cc135e0cebb02c3480ae5d74d377283180a2601f8f644edf7987b009316c63a91a2600084815260136020526040902060018101546001600160a01b031661131c57634e487b7160e01b600052600160045260246000fd5b6001815460ff16600181111561134257634e487b7160e01b600052602160045260246000fd5b14801561136e5750600183600281111561136c57634e487b7160e01b600052602160045260246000fd5b145b15611655576040805160608101825260088301805460ff161515825260098401805484516020828102820181019096528181526000956114469594938186019390918301828280156113df57602002820191906000526020600020905b8154815260200190600101908083116113cb575b505050505081526020016002820180548060200260200160405190810160405280929190818152602001828054801561143757602002820191906000526020600020905b815481526020019060010190808311611423575b505050505081525050866104fb565b600087815260146020908152604080832060018701546001600160a01b031684529091528120549192509061147b90836153d7565b90508260040154811115611490575060048201545b808360040160008282546114a491906153d7565b9091555050600087815260146020908152604080832060018701546001600160a01b0316845290915281208390556011546103e8906114e3908461539a565b6114ed919061525f565b905060006114fb82846153d7565b60028601546001600160a01b031660009081526019602052604081208054929350849290919061152c908490615247565b9091555050600285015460018601546040517fa9059cbb0000000000000000000000000000000000000000000000000000000081526001600160a01b03918216600482015260248101849052600092919091169063a9059cbb90604401602060405180830381600087803b1580156115a357600080fd5b505af11580156115b7573d6000803e3d6000fd5b505050506040513d601f19601f820116820180604052508101906115db9190614c51565b90508061164f5760405162461bcd60e51b8152602060048201526024808201527f455243323020546f6b656e20636f756c64206e6f74206265207472616e73666560448201527f72726564000000000000000000000000000000000000000000000000000000006064820152608401610794565b50505050505b505050505050565b600d546001600160a01b031633146116b75760405162461bcd60e51b815260206004820181905260248201527f4f776e61626c653a2063616c6c6572206973206e6f7420746865206f776e65726044820152606401610794565b600e55565b600081815260136020526040808220815161016081019092528054829060ff1660018111156116fb57634e487b7160e01b600052602160045260246000fd5b600181111561171a57634e487b7160e01b600052602160045260246000fd5b815281546001600160a01b0361010091829004811660208085019190915260018501548216604080860191909152600286015490921660608086019190915260038601546080860152600486015460a0860152600586015460c0860152600686015460e08601526007860154938501939093528151928301825260088501805460ff1615158452600986018054845181850281018501909552808552610120909601959193858401939092908301828280156117f557602002820191906000526020600020905b8154815260200190600101908083116117e1575b505050505081526020016002820180548060200260200160405190810160405280929190818152602001828054801561184d57602002820191906000526020600020905b815481526020019060010190808311611839575b5050505050815250508152602001600b8201805461186a9061541a565b80601f01602080910402602001604051908101604052809291908181526020018280546118969061541a565b80156118e35780601f106118b8576101008083540402835291602001916118e3565b820191906000526020600020905b8154815290600101906020018083116118c657829003601f168201915b5050505050815250509050336001600160a01b031681602001516001600160a01b0316146119535760405162461bcd60e51b815260206004820152601960248201527f63616c6c6572206973206e6f74207468652073706f6e736f72000000000000006044820152606401610794565b60018151600181111561197657634e487b7160e01b600052602160045260246000fd5b146119c35760405162461bcd60e51b815260206004820152601060248201527f7461736b206973206e6f74206f70656e000000000000000000000000000000006044820152606401610794565b60008281526015602052604090205415611a1f5760405162461bcd60e51b815260206004820152601660248201527f7265766f6b6520616c72656164792070656e64696e67000000000000000000006044820152606401610794565b506000908152601560205260409020429055565b604080518082018252601081527f303132333435363738396162636465660000000000000000000000000000000060208201528151602a80825260608281019094526001600160a01b03851692916000916020820181803683370190505090507f300000000000000000000000000000000000000000000000000000000000000081600081518110611ad557634e487b7160e01b600052603260045260246000fd5b60200101907effffffffffffffffffffffffffffffffffffffffffffffffffffffffffffff1916908160001a9053507f780000000000000000000000000000000000000000000000000000000000000081600181518110611b4657634e487b7160e01b600052603260045260246000fd5b60200101907effffffffffffffffffffffffffffffffffffffffffffffffffffffffffffff1916908160001a90535060005b6014811015611d725782600485611b9084600c615247565b60208110611bae57634e487b7160e01b600052603260045260246000fd5b1a60f81b7effffffffffffffffffffffffffffffffffffffffffffffffffffffffffffff1916901c60f81c60ff1681518110611bfa57634e487b7160e01b600052603260045260246000fd5b01602001517fff000000000000000000000000000000000000000000000000000000000000001682611c2d83600261539a565b611c38906002615247565b81518110611c5657634e487b7160e01b600052603260045260246000fd5b60200101907effffffffffffffffffffffffffffffffffffffffffffffffffffffffffffff1916908160001a9053508284611c9283600c615247565b60208110611cb057634e487b7160e01b600052603260045260246000fd5b825191901a600f16908110611cd557634e487b7160e01b600052603260045260246000fd5b01602001517fff000000000000000000000000000000000000000000000000000000000000001682611d0883600261539a565b611d13906003615247565b81518110611d3157634e487b7160e01b600052603260045260246000fd5b60200101907effffffffffffffffffffffffffffffffffffffffffffffffffffffffffffff1916908160001a90535080611d6a8161544f565b915050611b78565b50949350505050565b600d546001600160a01b03163314611dd55760405162461bcd60e51b815260206004820181905260248201527f4f776e61626c653a2063616c6c6572206973206e6f7420746865206f776e65726044820152606401610794565b601055565b600d546001600160a01b03163314611e345760405162461bcd60e51b815260206004820181905260248201527f4f776e61626c653a2063616c6c6572206973206e6f7420746865206f776e65726044820152606401610794565b611e3e6000613dc2565b565b60008181526013602052604090206001815460ff166001811115611e7457634e487b7160e01b600052602160045260246000fd5b14611ec15760405162461bcd60e51b815260206004820152601060248201527f7461736b206973206e6f74206f70656e000000000000000000000000000000006044820152606401610794565b805461010090046001600160a01b0316331480611eea575060018101546001600160a01b031633145b611f5c5760405162461bcd60e51b815260206004820152602260248201527f63616c6c6572206d7573742062652073706f6e736f72206f722070726f6d6f7460448201527f65720000000000000000000000000000000000000000000000000000000000006064820152608401610794565b805461010090046001600160a01b0316331415612015578060050154421080611fa457504260105482600701548360060154611f989190615247565b611fa29190615247565b105b6120155760405162461bcd60e51b8152602060048201526024808201527f6d75737420626520696e2076616c69642063616e63656c6c6174696f6e20706560448201527f72696f64000000000000000000000000000000000000000000000000000000006064820152608401610794565b6004818101805460009182905583547fffffffffffffffffffffffffffffffffffffffffffffffffffffffffffffff001680855560028501546040517fa9059cbb0000000000000000000000000000000000000000000000000000000081526001600160a01b0361010090930483169581019590955260248501839052919391169063a9059cbb90604401602060405180830381600087803b1580156120ba57600080fd5b505af11580156120ce573d6000803e3d6000fd5b505050506040513d601f19601f820116820180604052508101906120f29190614c51565b9050806121665760405162461bcd60e51b8152602060048201526024808201527f455243323020546f6b656e20636f756c64206e6f74206265207472616e73666560448201527f72726564000000000000000000000000000000000000000000000000000000006064820152608401610794565b50505050565b600d546001600160a01b031633146121c65760405162461bcd60e51b815260206004820181905260248201527f4f776e61626c653a2063616c6c6572206973206e6f7420746865206f776e65726044820152606401610794565b6001600160a01b03811660008181526019602052604081208190559063a9059cbb6121f9600d546001600160a01b031690565b6001600160a01b038581166000908152601960205260409081902054905160e085901b7fffffffff000000000000000000000000000000000000000000000000000000001681529290911660048301526024820152604401602060405180830381600087803b15801561226b57600080fd5b505af115801561227f573d6000803e3d6000fd5b505050506040513d601f19601f820116820180604052508101906122a39190614c51565b905080610e1d5760405162461bcd60e51b8152602060048201526024808201527f455243323020546f6b656e20636f756c64206e6f74206265207472616e73666560448201527f72726564000000000000000000000000000000000000000000000000000000006064820152608401610794565b60136020528060005260406000206000915090508060000160009054906101000a900460ff16908060000160019054906101000a90046001600160a01b0316908060010160009054906101000a90046001600160a01b0316908060020160009054906101000a90046001600160a01b031690806003015490806004015490806005015490806006015490806007015490806008016040518060600160405290816000820160009054906101000a900460ff161515151581526020016001820180548060200260200160405190810160405280929190818152602001828054801561242057602002820191906000526020600020905b81548152602001906001019080831161240c575b505050505081526020016002820180548060200260200160405190810160405280929190818152602001828054801561247857602002820191906000526020600020905b815481526020019060010190808311612464575b5050505050815250509080600b0180546124919061541a565b80601f01602080910402602001604051908101604052809291908181526020018280546124bd9061541a565b801561250a5780601f106124df5761010080835404028352916020019161250a565b820191906000526020600020905b8154815290600101906020018083116124ed57829003601f168201915b505050505090508b565b6006546001600160a01b0316331461252b57600080fd5b6008546040517f70a082310000000000000000000000000000000000000000000000000000000081523060048201526000916001600160a01b0316906370a082319060240160206040518083038186803b15801561258857600080fd5b505afa15801561259c573d6000803e3d6000fd5b505050506040513d601f19601f820116820180604052508101906125c09190614dd3565b6008546040517fa9059cbb000000000000000000000000000000000000000000000000000000008152336004820152602481018390529192506001600160a01b03169063a9059cbb90604401602060405180830381600087803b15801561262657600080fd5b505af115801561263a573d6000803e3d6000fd5b505050506040513d601f19601f82011682018060405250810190610e1d9190614c51565b854210801561266c57508587105b80156126835750600f5461268088886153d7565b11155b6126cf5760405162461bcd60e51b815260206004820152601860248201527f696e76616c69642074696d65206672616d6520676976656e00000000000000006044820152606401610794565b600e548511156127475760405162461bcd60e51b815260206004820152602360248201527f636c6966662063616e6e6f74206265206c6f6e676572207468616e203238206460448201527f61797300000000000000000000000000000000000000000000000000000000006064820152608401610794565b6001600160a01b03891660009081526018602052604090205460ff166127af5760405162461bcd60e51b815260206004820152601860248201527f746f6b656e206973206e6f742077686974656c697374656400000000000000006044820152606401610794565b600088116127ff5760405162461bcd60e51b815260206004820152601960248201527f6465706f736974416d6f756e742063616e6e6f742062652030000000000000006044820152606401610794565b6001600160a01b038a163314156128585760405162461bcd60e51b815260206004820152601960248201527f70726f6d6f7465722063616e6e6f742062652073656e646572000000000000006044820152606401610794565b81518351146128a95760405162461bcd60e51b815260206004820152601b60248201527f7469636b73206d75737420686176652073616d65206c656e67746800000000006044820152606401610794565b6001600160a01b038a16612966578782600184516128c791906153d7565b815181106128e557634e487b7160e01b600052603260045260246000fd5b602002602001015111156129615760405162461bcd60e51b815260206004820152603160248201527f746f74616c207061796f75742063616e6e6f742062652067726561746572207460448201527f68616e206465706f736974416d6f756e740000000000000000000000000000006064820152608401610794565b6129e9565b87826001845161297691906153d7565b8151811061299457634e487b7160e01b600052603260045260246000fd5b6020026020010151146129e95760405162461bcd60e51b815260206004820152601960248201527f6d75737420656e6420776974682066756c6c20616d6f756e74000000000000006044820152606401610794565b600183511115612b215760015b8351811015612b1f57838181518110612a1f57634e487b7160e01b600052603260045260246000fd5b602002602001015184600183612a3591906153d7565b81518110612a5357634e487b7160e01b600052603260045260246000fd5b6020026020010151108015612ac15750828181518110612a8357634e487b7160e01b600052603260045260246000fd5b602002602001015183600183612a9991906153d7565b81518110612ab757634e487b7160e01b600052603260045260246000fd5b6020026020010151105b612b0d5760405162461bcd60e51b815260206004820152601860248201527f7469636b73206d75737420626520696e6372656173696e6700000000000000006044820152606401610794565b80612b178161544f565b9150506129f6565b505b6040517f23b872dd000000000000000000000000000000000000000000000000000000008152336004820152306024820152604481018990526000906001600160a01b038b16906323b872dd90606401602060405180830381600087803b158015612b8b57600080fd5b505af1158015612b9f573d6000803e3d6000fd5b505050506040513d601f19601f82011682018060405250810190612bc39190614c51565b905080612c375760405162461bcd60e51b8152602060048201526024808201527f455243323020546f6b656e20636f756c64206e6f74206265207472616e73666560448201527f72726564000000000000000000000000000000000000000000000000000000006064820152608401610794565b6012805460009182612c488361544f565b9091555060408051606081018252881515815260208101889052808201879052815161016081019092529192508060018152602001336001600160a01b031681526020018e6001600160a01b031681526020018d6001600160a01b031681526020018c81526020018c81526020018b81526020018a8152602001898152602001828152602001858152506013600084815260200190815260200160002060008201518160000160006101000a81548160ff02191690836001811115612d1d57634e487b7160e01b600052602160045260246000fd5b021790555060208281015182546001600160a01b039182166101009081027fffffffffffffffffffffff0000000000000000000000000000000000000000ff90921691909117845560408501516001850180549184167fffffffffffffffffffffffff00000000000000000000000000000000000000009283161790556060860151600286018054919094169116179091556080840151600384015560a0840151600484015560c0840151600584015560e08401516006840155830151600783015561012083015180516008840180549115157fffffffffffffffffffffffffffffffffffffffffffffffffffffffffffffff0090921691909117815581830151805192939192612e349260098701920190614873565b5060408201518051612e50916002840191602090910190614873565b5050506101408201518051612e6f91600b8401916020909101906148be565b50506040516001600160a01b038f169150339084907f2454c22dc684ff5512045882a113101049fde511c581e351116949e9a2ed763790600090a450505050505050505050505050565b60008281526013602052604090206001815460ff166001811115612eed57634e487b7160e01b600052602160045260246000fd5b14612f3a5760405162461bcd60e51b815260206004820152601060248201527f7461736b206973206e6f74206f70656e000000000000000000000000000000006044820152606401610794565b60018101546001600160a01b031615612f955760405162461bcd60e51b815260206004820152601260248201527f7461736b206973206e6f74207075626c696300000000000000000000000000006044820152606401610794565b42816005015411158015612fad575080600601544211155b612ff95760405162461bcd60e51b815260206004820152601c60248201527f6d75737420626520696e2076616c69642074696d652077696e646f77000000006044820152606401610794565b600081600401541161304d5760405162461bcd60e51b815260206004820152601d60248201527f7461736b20686173206e6f2062616c616e63652072656d61696e696e670000006044820152606401610794565b6130fb8382600501548360060154846007015485600b01805461306f9061541a565b80601f016020809104026020016040519081016040528092919081815260200182805461309b9061541a565b80156130e85780601f106130bd576101008083540402835291602001916130e8565b820191906000526020600020905b8154815290600101906020018083116130cb57829003601f168201915b5050505050876305e31fbc60e01b613e2c565b505050565b600081815260136020526040808220815161016081019092528054829060ff16600181111561313f57634e487b7160e01b600052602160045260246000fd5b600181111561315e57634e487b7160e01b600052602160045260246000fd5b815281546001600160a01b0361010091829004811660208085019190915260018501548216604080860191909152600286015490921660608086019190915260038601546080860152600486015460a0860152600586015460c0860152600686015460e08601526007860154938501939093528151928301825260088501805460ff16151584526009860180548451818502810185019095528085526101209096019591938584019390929083018282801561323957602002820191906000526020600020905b815481526020019060010190808311613225575b505050505081526020016002820180548060200260200160405190810160405280929190818152602001828054801561329157602002820191906000526020600020905b81548152602001906001019080831161327d575b5050505050815250508152602001600b820180546132ae9061541a565b80601f01602080910402602001604051908101604052809291908181526020018280546132da9061541a565b80156133275780601f106132fc57610100808354040283529160200191613327565b820191906000526020600020905b81548152906001019060200180831161330a57829003601f168201915b5050505050815250509050336001600160a01b031681602001516001600160a01b0316146133975760405162461bcd60e51b815260206004820152601960248201527f63616c6c6572206973206e6f74207468652073706f6e736f72000000000000006044820152606401610794565b6001815160018111156133ba57634e487b7160e01b600052602160045260246000fd5b146134075760405162461bcd60e51b815260206004820152601060248201527f7461736b206973206e6f74206f70656e000000000000000000000000000000006044820152606401610794565b6000828152601560205260409020546134625760405162461bcd60e51b815260206004820152601660248201527f7265766f6b65206d7573742062652070656e64696e67000000000000000000006044820152606401610794565b601054600083815260156020526040902054429161347f91615247565b11156134f35760405162461bcd60e51b815260206004820152602260248201527f6d757374207761697420666f72207265766f6b652064656c617920746f20706160448201527f73730000000000000000000000000000000000000000000000000000000000006064820152608401610794565b60008281526015602052604081205560c081015160e0820151610100830151610140840151610e1d938693909290917ff4c592d300000000000000000000000000000000000000000000000000000000613c55565b600d546001600160a01b031633146135a25760405162461bcd60e51b815260206004820181905260248201527f4f776e61626c653a2063616c6c6572206973206e6f7420746865206f776e65726044820152606401610794565b6001600160a01b03811661361e5760405162461bcd60e51b815260206004820152602660248201527f4f776e61626c653a206e6577206f776e657220697320746865207a65726f206160448201527f64647265737300000000000000000000000000000000000000000000000000006064820152608401610794565b610fd281613dc2565b60008481526005602052604090205484906001600160a01b031633146136b55760405162461bcd60e51b815260206004820152602860248201527f536f75726365206d75737420626520746865206f7261636c65206f662074686560448201527f20726571756573740000000000000000000000000000000000000000000000006064820152608401610794565b60008181526005602052604080822080547fffffffffffffffffffffffff00000000000000000000000000000000000000001690555182917f7cc135e0cebb02c3480ae5d74d377283180a2601f8f644edf7987b009316c63a91a260008481526013602052604090206001815460ff16600181111561374457634e487b7160e01b600052602160045260246000fd5b1480156137705750600083600281111561376e57634e487b7160e01b600052602160045260246000fd5b145b15611655576004818101805460009182905583547fffffffffffffffffffffffffffffffffffffffffffffffffffffffffffffff001680855560028501546040517fa9059cbb0000000000000000000000000000000000000000000000000000000081526001600160a01b0361010090930483169581019590955260248501839052919391169063a9059cbb90604401602060405180830381600087803b15801561381a57600080fd5b505af115801561382e573d6000803e3d6000fd5b505050506040513d601f19601f820116820180604052508101906138529190614c51565b9050806138c65760405162461bcd60e51b8152602060048201526024808201527f455243323020546f6b656e20636f756c64206e6f74206265207472616e73666560448201527f72726564000000000000000000000000000000000000000000000000000000006064820152608401610794565b5050505050505050565b606080600060125467ffffffffffffffff8111156138fe57634e487b7160e01b600052604160045260246000fd5b60405190808252806020026020018201604052801561393757816020015b613924614931565b81526020019060019003908161391c5790505b509050600060125467ffffffffffffffff81111561396557634e487b7160e01b600052604160045260246000fd5b60405190808252806020026020018201604052801561398e578160200160208202803683370190505b50905060005b601254811015613c4b5760008181526013602052604090819020815161016081019092528054829060ff1660018111156139de57634e487b7160e01b600052602160045260246000fd5b60018111156139fd57634e487b7160e01b600052602160045260246000fd5b815281546001600160a01b0361010091829004811660208085019190915260018501548216604080860191909152600286015490921660608086019190915260038601546080860152600486015460a0860152600586015460c0860152600686015460e08601526007860154938501939093528151928301825260088501805460ff161515845260098601805484518185028101850190955280855261012090960195919385840193909290830182828015613ad857602002820191906000526020600020905b815481526020019060010190808311613ac4575b5050505050815260200160028201805480602002602001604051908101604052809291908181526020018280548015613b3057602002820191906000526020600020905b815481526020019060010190808311613b1c575b5050505050815250508152602001600b82018054613b4d9061541a565b80601f0160208091040260200160405190810160405280929190818152602001828054613b799061541a565b8015613bc65780601f10613b9b57610100808354040283529160200191613bc6565b820191906000526020600020905b815481529060010190602001808311613ba957829003601f168201915b505050505081525050838281518110613bef57634e487b7160e01b600052603260045260246000fd5b60200260200101819052506015600082815260200190815260200160002054828281518110613c2e57634e487b7160e01b600052603260045260246000fd5b602090810291909101015280613c438161544f565b915050613994565b5090939092509050565b6000613c64600954308461402e565b60408051808201909152600681527f7461736b496400000000000000000000000000000000000000000000000000006020820152909150613ca7908290896140bf565b60408051808201909152600981527f73746172744461746500000000000000000000000000000000000000000000006020820152613ce7908290886140bf565b60408051808201909152600781527f656e6444617465000000000000000000000000000000000000000000000000006020820152613d27908290876140bf565b60408051808201909152600581527f636c6966660000000000000000000000000000000000000000000000000000006020820152613d67908290866140bf565b60408051808201909152600881527f7461736b446174610000000000000000000000000000000000000000000000006020820152613da7908290856140dd565b600754600c546138c6916001600160a01b03169083906140fb565b600d80546001600160a01b038381167fffffffffffffffffffffffff0000000000000000000000000000000000000000831681179093556040519116919082907f8be0079c531659141344cd1fd0a4f28419497f9722a3daafe3b4186f6b6457e090600090a35050565b6000613e3b600a54308461402e565b60408051808201909152600681527f7461736b496400000000000000000000000000000000000000000000000000006020820152909150613e7e9082908a6140bf565b60408051808201909152600981527f73746172744461746500000000000000000000000000000000000000000000006020820152613ebe908290896140bf565b60408051808201909152600781527f656e6444617465000000000000000000000000000000000000000000000000006020820152613efe908290886140bf565b60408051808201909152600581527f636c6966660000000000000000000000000000000000000000000000000000006020820152613f3e908290876140bf565b613f886040518060400160405280600b81526020017f7573657241646472657373000000000000000000000000000000000000000000815250613f8033611a33565b8391906140dd565b60408051808201909152600681527f75736572496400000000000000000000000000000000000000000000000000006020820152613fc8908290856140dd565b60408051808201909152600881527f7461736b446174610000000000000000000000000000000000000000000000006020820152614008908290866140dd565b600754600c54614023916001600160a01b03169083906140fb565b505050505050505050565b61406c6040805160a0810182526000808252602080830182905282840182905260608084018390528451808601909552845283015290608082015290565b6140aa6040805160a0810182526000808252602080830182905282840182905260608084018390528451808601909552845283015290608082015290565b6140b681868686614133565b95945050505050565b60808301516140ce90836141be565b60808301516130fb90826141d5565b60808301516140ec90836141be565b60808301516130fb90826141be565b600061412b84848460017f40429946000000000000000000000000000000000000000000000000000000006141e1565b949350505050565b6141716040805160a0810182526000808252602080830182905282840182905260608084018390528451808601909552845283015290608082015290565b61418185608001516101006144b4565b50509183526001600160a01b031660208301527fffffffff0000000000000000000000000000000000000000000000000000000016604082015290565b6141cb8260038351614519565b6130fb82826145e7565b610e1d82600083614519565b6004546040517fffffffffffffffffffffffffffffffffffffffff0000000000000000000000003060601b1660208201526034810191909152600090605401604080518083037fffffffffffffffffffffffffffffffffffffffffffffffffffffffffffffffe0018152918152815160209283012060045460608901526000818152600590935281832080547fffffffffffffffffffffffff0000000000000000000000000000000000000000166001600160a01b038b16179055905190925082917fb5e6e01e79f91267dc17b4e6314d5d4d03593d2ceee0fbb452b750bd70ea5af991a2600082600080886000015189602001518a604001518b606001518a8d6080015160000151604051602401614301989796959493929190614f55565b604080517fffffffffffffffffffffffffffffffffffffffffffffffffffffffffffffffe08184030181529181526020820180517bffffffffffffffffffffffffffffffffffffffffffffffffffffffff167fffffffff000000000000000000000000000000000000000000000000000000009094169390931790925260025491517f4000aea00000000000000000000000000000000000000000000000000000000081529092506001600160a01b0390911690634000aea0906143cd908a9089908690600401614fd1565b602060405180830381600087803b1580156143e757600080fd5b505af11580156143fb573d6000803e3d6000fd5b505050506040513d601f19601f8201168201806040525081019061441f9190614c51565b6144915760405162461bcd60e51b815260206004820152602360248201527f756e61626c6520746f207472616e73666572416e6443616c6c20746f206f726160448201527f636c6500000000000000000000000000000000000000000000000000000000006064820152608401610794565b6001600460008282546144a49190615247565b9091555091979650505050505050565b6040805180820190915260608152600060208201526144d4602083615488565b156144fc576144e4602083615488565b6144ef9060206153d7565b6144f99083615247565b91505b506020828101829052604080518085526000815290920101905290565b60178111614534576121668360e0600585901b168317614615565b60ff811161455e57614551836018611fe0600586901b1617614615565b506121668382600161463a565b61ffff81116145895761457c836019611fe0600586901b1617614615565b506121668382600261463a565b63ffffffff81116145b6576145a983601a611fe0600586901b1617614615565b506121668382600461463a565b67ffffffffffffffff81116130fb576145da83601b611fe0600586901b1617614615565b506121668382600861463a565b60408051808201909152606081526000602082015261460e83846000015151848551614660565b9392505050565b60408051808201909152606081526000602082015261460e8384600001515184614768565b60408051808201909152606081526000602082015261412b8485600001515185856147c4565b604080518082019091526060815260006020820152825182111561468357600080fd5b60208501516146928386615247565b11156146c5576146c5856146b5876020015187866146b09190615247565b614845565b6146c090600261539a565b61485c565b6000808651805187602083010193508088870111156146e45787860182525b505050602084015b602084106147245780518252614703602083615247565b9150614710602082615247565b905061471d6020856153d7565b93506146ec565b5181517fffffffffffffffffffffffffffffffffffffffffffffffffffffffffffffffff60208690036101000a019081169019919091161790525083949350505050565b6040805180820190915260608152600060208201528360200151831061479d5761479d84856020015160026146c0919061539a565b8351805160208583010184815350808514156147ba576001810182525b5093949350505050565b60408051808201909152606081526000602082015260208501516147e88584615247565b11156147fc576147fc856146b58685615247565b6000600161480c846101006152d4565b61481691906153d7565b905085518386820101858319825116178152508051848701111561483a5783860181525b509495945050505050565b600081831115614856575081610704565b50919050565b815161486883836144b4565b5061216683826145e7565b8280548282559060005260206000209081019282156148ae579160200282015b828111156148ae578251825591602001919060010190614893565b506148ba9291506149cb565b5090565b8280546148ca9061541a565b90600052602060002090601f0160209004810192826148ec57600085556148ae565b82601f1061490557805160ff19168380011785556148ae565b828001600101855582156148ae57918201828111156148ae578251825591602001919060010190614893565b604080516101608101909152806000815260200160006001600160a01b0316815260200160006001600160a01b0316815260200160006001600160a01b0316815260200160008152602001600081526020016000815260200160008152602001600081526020016149be604051806060016040528060001515815260200160608152602001606081525090565b8152602001606081525090565b5b808211156148ba57600081556001016149cc565b80356001600160a01b03811681146149f757600080fd5b919050565b600082601f830112614a0c578081fd5b8135602067ffffffffffffffff821115614a2857614a286154c8565b8160051b614a378282016151f8565b838152828101908684018388018501891015614a51578687fd5b8693505b85841015614a73578035835260019390930192918401918401614a55565b50979650505050505050565b80356149f7816154de565b8035600381106149f757600080fd5b600082601f830112614aa9578081fd5b813567ffffffffffffffff811115614ac357614ac36154c8565b614af460207fffffffffffffffffffffffffffffffffffffffffffffffffffffffffffffffe0601f840116016151f8565b818152846020838601011115614b08578283fd5b816020850160208301379081016020019190915292915050565b600060208284031215614b33578081fd5b61460e826149e0565b6000806000806000806000806000806101408b8d031215614b5b578586fd5b614b648b6149e0565b9950614b7260208c016149e0565b985060408b0135975060608b0135965060808b0135955060a08b01359450614b9c60c08c01614a7f565b935060e08b013567ffffffffffffffff80821115614bb8578485fd5b614bc48e838f016149fc565b94506101008d0135915080821115614bda578384fd5b614be68e838f016149fc565b93506101208d0135915080821115614bfc578283fd5b50614c098d828e01614a99565b9150509295989b9194979a5092959850565b60008060408385031215614c2d578182fd5b614c36836149e0565b91506020830135614c46816154de565b809150509250929050565b600060208284031215614c62578081fd5b815161460e816154de565b600080600080600060a08688031215614c84578081fd5b8535945060208601359350604086013567ffffffffffffffff811115614ca8578182fd5b614cb488828901614a99565b93505060608601359150614cca60808701614a8a565b90509295509295909350565b60008060008060808587031215614ceb578384fd5b843593506020850135925060408501359150614d0960608601614a8a565b905092959194509250565b60008060408385031215614d26578182fd5b823567ffffffffffffffff80821115614d3d578384fd5b9084019060608287031215614d50578384fd5b614d586151cf565b8235614d63816154de565b8152602083013582811115614d76578586fd5b614d82888286016149fc565b602083015250604083013582811115614d99578586fd5b614da5888286016149fc565b6040830152509660209590950135955050505050565b600060208284031215614dcc578081fd5b5035919050565b600060208284031215614de4578081fd5b5051919050565b600080600060608486031215614dff578081fd5b83359250614e0f602085016149e0565b9150604084013590509250925092565b60008060408385031215614e31578182fd5b82359150602083013567ffffffffffffffff811115614e4e578182fd5b614e5a85828601614a99565b9150509250929050565b6000815180845260208085019450808401835b8381101561483a57815187529582019590820190600101614e77565b60008151808452614eab8160208601602086016153ee565b601f017fffffffffffffffffffffffffffffffffffffffffffffffffffffffffffffffe0169290920160200192915050565b60028110614efb57634e487b7160e01b600052602160045260246000fd5b9052565b8051151582526000602082015160606020850152614f206060850182614e64565b9050604083015184820360408601526140b68282614e64565b60008251614f4b8184602087016153ee565b9190910192915050565b60006101006001600160a01b03808c1684528a60208501528960408501528089166060850152507fffffffff00000000000000000000000000000000000000000000000000000000871660808401528560a08401528460c08401528060e0840152614fc281840185614e93565b9b9a5050505050505050505050565b6001600160a01b03841681528260208201526060604082015260006140b66060830184614e93565b60006040808301818452808651808352606092508286019150828160051b8701016020808a01875b84811015615105577fffffffffffffffffffffffffffffffffffffffffffffffffffffffffffffffa08a85030186528151610160615060868351614edd565b848201516001600160a01b03908116878701528a83015181168b8801528983015116898701526080808301519087015260a0808301519087015260c0808301519087015260e080830151908701526101008083015190870152610120808301518188018390526150d283890182614eff565b9250505061014080830151925086820381880152506150f18183614e93565b978501979550505090820190600101615021565b5050878203908801526151188189614e64565b9998505050505050505050565b602081016107048284614edd565b6000610160615142838f614edd565b6001600160a01b03808e166020850152808d166040850152808c166060850152508960808401528860a08401528760c08401528660e0840152856101008401528061012084015261519581840186614eff565b90508281036101408401526151aa8185614e93565b9e9d5050505050505050505050505050565b60208152600061460e6020830184614e93565b6040516060810167ffffffffffffffff811182821017156151f2576151f26154c8565b60405290565b604051601f82017fffffffffffffffffffffffffffffffffffffffffffffffffffffffffffffffe016810167ffffffffffffffff8111828210171561523f5761523f6154c8565b604052919050565b6000821982111561525a5761525a61549c565b500190565b60008261526e5761526e6154b2565b500490565b600181815b808511156152cc57817fffffffffffffffffffffffffffffffffffffffffffffffffffffffffffffffff048211156152b2576152b261549c565b808516156152bf57918102915b93841c9390800290615278565b509250929050565b600061460e83836000826152ea57506001610704565b816152f757506000610704565b816001811461530d576002811461531757615333565b6001915050610704565b60ff8411156153285761532861549c565b50506001821b610704565b5060208310610133831016604e8410600b8410161715615356575081810a610704565b6153608383615273565b807fffffffffffffffffffffffffffffffffffffffffffffffffffffffffffffffff048211156153925761539261549c565b029392505050565b6000817fffffffffffffffffffffffffffffffffffffffffffffffffffffffffffffffff04831182151516156153d2576153d261549c565b500290565b6000828210156153e9576153e961549c565b500390565b60005b838110156154095781810151838201526020016153f1565b838111156121665750506000910152565b600181811c9082168061542e57607f821691505b6020821081141561485657634e487b7160e01b600052602260045260246000fd5b60007fffffffffffffffffffffffffffffffffffffffffffffffffffffffffffffffff8214156154815761548161549c565b5060010190565b600082615497576154976154b2565b500690565b634e487b7160e01b600052601160045260246000fd5b634e487b7160e01b600052601260045260246000fd5b634e487b7160e01b600052604160045260246000fd5b8015158114610fd257600080fdfea2646970667358221220476715991054071e6aaf8865267aba6970e18f61eb6af3c92c898e2f0fe5c5df64736f6c63430008040033",
  "linkReferences": {},
  "deployedLinkReferences": {}
}