{
  "_format": "hh-sol-artifact-1",
  "contractName": "PrivateEscrow",
  "sourceName": "contracts/EscrowPlatform.sol",
  "abi": [
    {
      "inputs": [],
      "stateMutability": "nonpayable",
      "type": "constructor"
    },
    {
      "anonymous": false,
      "inputs": [
        {
          "indexed": true,
          "internalType": "uint256",
          "name": "agreementId",
          "type": "uint256"
        },
        {
          "indexed": true,
          "internalType": "address",
          "name": "sponsor",
          "type": "address"
        },
        {
          "indexed": true,
          "internalType": "address",
          "name": "promoter",
          "type": "address"
        }
      ],
      "name": "AgreementCreated",
      "type": "event"
    },
    {
      "inputs": [],
      "name": "agreementCount",
      "outputs": [
        {
          "internalType": "uint256",
          "name": "",
          "type": "uint256"
        }
      ],
      "stateMutability": "view",
      "type": "function"
    },
    {
      "inputs": [],
      "name": "baseFee",
      "outputs": [
        {
          "internalType": "uint256",
          "name": "",
          "type": "uint256"
        }
      ],
      "stateMutability": "view",
      "type": "function"
    },
    {
      "inputs": [
        {
          "internalType": "enum Escrow.Platform",
          "name": "platform",
          "type": "uint8"
        },
        {
          "internalType": "address",
          "name": "promoter",
          "type": "address"
        },
        {
          "internalType": "address",
          "name": "erc20Token",
          "type": "address"
        },
        {
          "internalType": "uint256",
          "name": "depositAmount",
          "type": "uint256"
        },
        {
          "internalType": "uint256",
          "name": "timeWindowStart",
          "type": "uint256"
        },
        {
          "internalType": "uint256",
          "name": "timeWindowEnd",
          "type": "uint256"
        },
        {
          "internalType": "uint256",
          "name": "tweetMinDuration",
          "type": "uint256"
        },
        {
          "internalType": "bytes32",
          "name": "hashDigest",
          "type": "bytes32"
        }
      ],
      "name": "createAgreement",
      "outputs": [],
      "stateMutability": "payable",
      "type": "function"
    },
    {
      "inputs": [
        {
          "internalType": "uint256",
          "name": "agreementId",
          "type": "uint256"
        },
        {
          "internalType": "bytes[]",
          "name": "urlProof",
          "type": "bytes[]"
        }
      ],
      "name": "fulfillAgreement",
      "outputs": [],
      "stateMutability": "nonpayable",
      "type": "function"
    },
    {
      "inputs": [
        {
          "internalType": "uint256",
          "name": "",
          "type": "uint256"
        }
      ],
      "name": "fulfilled",
      "outputs": [
        {
          "internalType": "bool",
          "name": "",
          "type": "bool"
        }
      ],
      "stateMutability": "view",
      "type": "function"
    },
    {
      "inputs": [
        {
          "internalType": "uint256",
          "name": "agreementId",
          "type": "uint256"
        }
      ],
      "name": "getAgreement",
      "outputs": [
        {
          "components": [
            {
              "internalType": "enum Escrow.Platform",
              "name": "platform",
              "type": "uint8"
            },
            {
              "internalType": "bool",
              "name": "isAgreement",
              "type": "bool"
            },
            {
              "internalType": "address",
              "name": "sponsor",
              "type": "address"
            },
            {
              "internalType": "address",
              "name": "promoter",
              "type": "address"
            },
            {
              "internalType": "address",
              "name": "erc20Token",
              "type": "address"
            },
            {
              "internalType": "uint256",
              "name": "depositAmount",
              "type": "uint256"
            },
            {
              "internalType": "uint256",
              "name": "timeWindowStart",
              "type": "uint256"
            },
            {
              "internalType": "uint256",
              "name": "timeWindowEnd",
              "type": "uint256"
            },
            {
              "internalType": "uint256",
              "name": "tweetMinDuration",
              "type": "uint256"
            },
            {
              "internalType": "bytes32",
              "name": "hashDigest",
              "type": "bytes32"
            }
          ],
          "internalType": "struct Escrow.Agreement",
          "name": "",
          "type": "tuple"
        }
      ],
      "stateMutability": "view",
      "type": "function"
    },
    {
      "inputs": [
        {
          "internalType": "uint256",
          "name": "agreementId",
          "type": "uint256"
        }
      ],
      "name": "isFulfilled",
      "outputs": [
        {
          "internalType": "bool",
          "name": "",
          "type": "bool"
        }
      ],
      "stateMutability": "view",
      "type": "function"
    },
    {
      "inputs": [],
      "name": "owner",
      "outputs": [
        {
          "internalType": "address",
          "name": "",
          "type": "address"
        }
      ],
      "stateMutability": "view",
      "type": "function"
    },
    {
      "inputs": [
        {
          "internalType": "uint256",
          "name": "agreementId",
          "type": "uint256"
        }
      ],
      "name": "revokeAgreement",
      "outputs": [],
      "stateMutability": "nonpayable",
      "type": "function"
    }
  ],
  "bytecode": "0x60806040526032600055600060015534801561001a57600080fd5b5033600260006101000a81548173ffffffffffffffffffffffffffffffffffffffff021916908373ffffffffffffffffffffffffffffffffffffffff160217905550611bd08061006b6000396000f3fe6080604052600436106100765760003560e01c8063091490201461007b5780631bc404d6146100b85780634f9f6fe6146100f557806359d9bceb14610132578063669226661461014e5780636ef25c3a146101775780638da5cb5b146101a2578063bb7bb278146101cd578063fcfa1a78146101f8575b600080fd5b34801561008757600080fd5b506100a2600480360381019061009d91906111b1565b610221565b6040516100af919061154b565b60405180910390f35b3480156100c457600080fd5b506100df60048036038101906100da91906111b1565b61024b565b6040516100ec919061154b565b60405180910390f35b34801561010157600080fd5b5061011c600480360381019061011791906111b1565b61026b565b60405161012991906116a6565b60405180910390f35b61014c600480360381019061014791906110ff565b61046f565b005b34801561015a57600080fd5b50610175600480360381019061017091906111da565b610995565b005b34801561018357600080fd5b5061018c610c03565b60405161019991906116c2565b60405180910390f35b3480156101ae57600080fd5b506101b7610c09565b6040516101c491906114d0565b60405180910390f35b3480156101d957600080fd5b506101e2610c2f565b6040516101ef91906116c2565b60405180910390f35b34801561020457600080fd5b5061021f600480360381019061021a91906111b1565b610c35565b005b60006004600083815260200190815260200160002060009054906101000a900460ff169050919050565b60046020528060005260406000206000915054906101000a900460ff1681565b610273610e83565b60036000838152602001908152602001600020604051806101400160405290816000820160009054906101000a900460ff1660018111156102dd577f4e487b7100000000000000000000000000000000000000000000000000000000600052602160045260246000fd5b6001811115610315577f4e487b7100000000000000000000000000000000000000000000000000000000600052602160045260246000fd5b81526020016000820160019054906101000a900460ff161515151581526020016000820160029054906101000a900473ffffffffffffffffffffffffffffffffffffffff1673ffffffffffffffffffffffffffffffffffffffff1673ffffffffffffffffffffffffffffffffffffffff1681526020016001820160009054906101000a900473ffffffffffffffffffffffffffffffffffffffff1673ffffffffffffffffffffffffffffffffffffffff1673ffffffffffffffffffffffffffffffffffffffff1681526020016002820160009054906101000a900473ffffffffffffffffffffffffffffffffffffffff1673ffffffffffffffffffffffffffffffffffffffff1673ffffffffffffffffffffffffffffffffffffffff168152602001600382015481526020016004820154815260200160058201548152602001600682015481526020016007820154815250509050919050565b8342106104b1576040517f08c379a00000000000000000000000000000000000000000000000000000000081526004016104a890611666565b60405180910390fd5b8284106104f3576040517f08c379a00000000000000000000000000000000000000000000000000000000081526004016104ea90611566565b60405180910390fd5b60008211610536576040517f08c379a000000000000000000000000000000000000000000000000000000000815260040161052d90611646565b60405180910390fd5b60008511610579576040517f08c379a000000000000000000000000000000000000000000000000000000000815260040161057090611586565b60405180910390fd5b3373ffffffffffffffffffffffffffffffffffffffff168773ffffffffffffffffffffffffffffffffffffffff1614156105e8576040517f08c379a00000000000000000000000000000000000000000000000000000000081526004016105df906115e6565b60405180910390fd5b60008673ffffffffffffffffffffffffffffffffffffffff166323b872dd3330896040518463ffffffff1660e01b8152600401610627939291906114eb565b602060405180830381600087803b15801561064157600080fd5b505af1158015610655573d6000803e3d6000fd5b505050506040513d601f19601f8201168201806040525081019061067991906110d6565b9050806106bb576040517f08c379a00000000000000000000000000000000000000000000000000000000081526004016106b290611606565b60405180910390fd5b6040518061014001604052808a6001811115610700577f4e487b7100000000000000000000000000000000000000000000000000000000600052602160045260246000fd5b81526020016001151581526020013373ffffffffffffffffffffffffffffffffffffffff1681526020018973ffffffffffffffffffffffffffffffffffffffff1681526020018873ffffffffffffffffffffffffffffffffffffffff1681526020018781526020018681526020018581526020018481526020018381525060036000600154815260200190815260200160002060008201518160000160006101000a81548160ff021916908360018111156107e4577f4e487b7100000000000000000000000000000000000000000000000000000000600052602160045260246000fd5b021790555060208201518160000160016101000a81548160ff02191690831515021790555060408201518160000160026101000a81548173ffffffffffffffffffffffffffffffffffffffff021916908373ffffffffffffffffffffffffffffffffffffffff16021790555060608201518160010160006101000a81548173ffffffffffffffffffffffffffffffffffffffff021916908373ffffffffffffffffffffffffffffffffffffffff16021790555060808201518160020160006101000a81548173ffffffffffffffffffffffffffffffffffffffff021916908373ffffffffffffffffffffffffffffffffffffffff16021790555060a0820151816003015560c0820151816004015560e08201518160050155610100820151816006015561012082015181600701559050508773ffffffffffffffffffffffffffffffffffffffff163373ffffffffffffffffffffffffffffffffffffffff166001547fe037ec30313eecdd927ffae3beed86a87b82f7bb794966ec08d75cf1a6e8268660405160405180910390a46001600081548092919061098590611827565b9190505550505050505050505050565b60006003600084815260200190815260200160002090508060000160019054906101000a900460ff166109fd576040517f08c379a00000000000000000000000000000000000000000000000000000000081526004016109f4906115c6565b60405180910390fd5b42816004015411158015610a145750806004015442105b610a53576040517f08c379a0000000000000000000000000000000000000000000000000000000008152600401610a4a90611626565b60405180910390fd5b6004600084815260200190815260200160002060009054906101000a900460ff1615610ab4576040517f08c379a0000000000000000000000000000000000000000000000000000000008152600401610aab90611686565b60405180910390fd5b60016004600085815260200190815260200160002060006101000a81548160ff02191690831515021790555060008160020160009054906101000a900473ffffffffffffffffffffffffffffffffffffffff1673ffffffffffffffffffffffffffffffffffffffff1663a9059cbb8360010160009054906101000a900473ffffffffffffffffffffffffffffffffffffffff1684600301546040518363ffffffff1660e01b8152600401610b69929190611522565b602060405180830381600087803b158015610b8357600080fd5b505af1158015610b97573d6000803e3d6000fd5b505050506040513d601f19601f82011682018060405250810190610bbb91906110d6565b905080610bfd576040517f08c379a0000000000000000000000000000000000000000000000000000000008152600401610bf490611606565b60405180910390fd5b50505050565b60005481565b600260009054906101000a900473ffffffffffffffffffffffffffffffffffffffff1681565b60015481565b60006003600083815260200190815260200160002090508060000160019054906101000a900460ff16610c9d576040517f08c379a0000000000000000000000000000000000000000000000000000000008152600401610c94906115c6565b60405180910390fd5b42816005015410610ce3576040517f08c379a0000000000000000000000000000000000000000000000000000000008152600401610cda906115a6565b60405180910390fd5b6004600083815260200190815260200160002060009054906101000a900460ff1615610d44576040517f08c379a0000000000000000000000000000000000000000000000000000000008152600401610d3b90611686565b60405180910390fd5b60008160000160016101000a81548160ff02191690831515021790555060008160020160009054906101000a900473ffffffffffffffffffffffffffffffffffffffff1673ffffffffffffffffffffffffffffffffffffffff1663a9059cbb8360000160029054906101000a900473ffffffffffffffffffffffffffffffffffffffff1684600301546040518363ffffffff1660e01b8152600401610dea929190611522565b602060405180830381600087803b158015610e0457600080fd5b505af1158015610e18573d6000803e3d6000fd5b505050506040513d601f19601f82011682018060405250810190610e3c91906110d6565b905080610e7e576040517f08c379a0000000000000000000000000000000000000000000000000000000008152600401610e7590611606565b60405180910390fd5b505050565b60405180610140016040528060006001811115610ec9577f4e487b7100000000000000000000000000000000000000000000000000000000600052602160045260246000fd5b8152602001600015158152602001600073ffffffffffffffffffffffffffffffffffffffff168152602001600073ffffffffffffffffffffffffffffffffffffffff168152602001600073ffffffffffffffffffffffffffffffffffffffff16815260200160008152602001600081526020016000815260200160008152602001600080191681525090565b6000610f68610f6384611702565b6116dd565b90508083825260208201905082856020860282011115610f8757600080fd5b60005b85811015610fd157813567ffffffffffffffff811115610fa957600080fd5b808601610fb68982611082565b85526020850194506020840193505050600181019050610f8a565b5050509392505050565b6000610fee610fe98461172e565b6116dd565b90508281526020810184848401111561100657600080fd5b6110118482856117e7565b509392505050565b60008135905061102881611b2e565b92915050565b600082601f83011261103f57600080fd5b813561104f848260208601610f55565b91505092915050565b60008151905061106781611b45565b92915050565b60008135905061107c81611b5c565b92915050565b600082601f83011261109357600080fd5b81356110a3848260208601610fdb565b91505092915050565b6000813590506110bb81611b73565b92915050565b6000813590506110d081611b83565b92915050565b6000602082840312156110e857600080fd5b60006110f684828501611058565b91505092915050565b600080600080600080600080610100898b03121561111c57600080fd5b600061112a8b828c016110ac565b985050602061113b8b828c01611019565b975050604061114c8b828c01611019565b965050606061115d8b828c016110c1565b955050608061116e8b828c016110c1565b94505060a061117f8b828c016110c1565b93505060c06111908b828c016110c1565b92505060e06111a18b828c0161106d565b9150509295985092959890939650565b6000602082840312156111c357600080fd5b60006111d1848285016110c1565b91505092915050565b600080604083850312156111ed57600080fd5b60006111fb858286016110c1565b925050602083013567ffffffffffffffff81111561121857600080fd5b6112248582860161102e565b9150509250929050565b61123781611770565b82525050565b61124681611770565b82525050565b61125581611782565b82525050565b61126481611782565b82525050565b6112738161178e565b82525050565b611282816117d5565b82525050565b600061129560278361175f565b91506112a08261190e565b604082019050919050565b60006112b860198361175f565b91506112c38261195d565b602082019050919050565b60006112db601f8361175f565b91506112e682611986565b602082019050919050565b60006112fe60148361175f565b9150611309826119af565b602082019050919050565b600061132160198361175f565b915061132c826119d8565b602082019050919050565b600061134460248361175f565b915061134f82611a01565b604082019050919050565b600061136760188361175f565b915061137282611a50565b602082019050919050565b600061138a60228361175f565b915061139582611a79565b604082019050919050565b60006113ad601e8361175f565b91506113b882611ac8565b602082019050919050565b60006113d0601b8361175f565b91506113db82611af1565b602082019050919050565b610140820160008201516113fd6000850182611279565b506020820151611410602085018261124c565b506040820151611423604085018261122e565b506060820151611436606085018261122e565b506080820151611449608085018261122e565b5060a082015161145c60a08501826114b2565b5060c082015161146f60c08501826114b2565b5060e082015161148260e08501826114b2565b506101008201516114976101008501826114b2565b506101208201516114ac61012085018261126a565b50505050565b6114bb816117cb565b82525050565b6114ca816117cb565b82525050565b60006020820190506114e5600083018461123d565b92915050565b6000606082019050611500600083018661123d565b61150d602083018561123d565b61151a60408301846114c1565b949350505050565b6000604082019050611537600083018561123d565b61154460208301846114c1565b9392505050565b6000602082019050611560600083018461125b565b92915050565b6000602082019050818103600083015261157f81611288565b9050919050565b6000602082019050818103600083015261159f816112ab565b9050919050565b600060208201905081810360008301526115bf816112ce565b9050919050565b600060208201905081810360008301526115df816112f1565b9050919050565b600060208201905081810360008301526115ff81611314565b9050919050565b6000602082019050818103600083015261161f81611337565b9050919050565b6000602082019050818103600083015261163f8161135a565b9050919050565b6000602082019050818103600083015261165f8161137d565b9050919050565b6000602082019050818103600083015261167f816113a0565b9050919050565b6000602082019050818103600083015261169f816113c3565b9050919050565b6000610140820190506116bc60008301846113e6565b92915050565b60006020820190506116d760008301846114c1565b92915050565b60006116e76116f8565b90506116f382826117f6565b919050565b6000604051905090565b600067ffffffffffffffff82111561171d5761171c6118ce565b5b602082029050602081019050919050565b600067ffffffffffffffff821115611749576117486118ce565b5b611752826118fd565b9050602081019050919050565b600082825260208201905092915050565b600061177b826117ab565b9050919050565b60008115159050919050565b6000819050919050565b60008190506117a682611b1a565b919050565b600073ffffffffffffffffffffffffffffffffffffffff82169050919050565b6000819050919050565b60006117e082611798565b9050919050565b82818337600083830152505050565b6117ff826118fd565b810181811067ffffffffffffffff8211171561181e5761181d6118ce565b5b80604052505050565b6000611832826117cb565b91507fffffffffffffffffffffffffffffffffffffffffffffffffffffffffffffffff82141561186557611864611870565b5b600182019050919050565b7f4e487b7100000000000000000000000000000000000000000000000000000000600052601160045260246000fd5b7f4e487b7100000000000000000000000000000000000000000000000000000000600052602160045260246000fd5b7f4e487b7100000000000000000000000000000000000000000000000000000000600052604160045260246000fd5b6000601f19601f8301169050919050565b7f74696d6557696e646f77456e64206973206265666f72652074696d6557696e6460008201527f6f77537461727400000000000000000000000000000000000000000000000000602082015250565b7f6465706f736974416d6f756e742063616e6e6f74206265203000000000000000600082015250565b7f6d7573742062652061667465722076616c69642074696d652077696e646f7700600082015250565b7f696e76616c69642061677265656d656e74206964000000000000000000000000600082015250565b7f70726f6d6f7465722063616e6e6f742062652073656e64657200000000000000600082015250565b7f455243323020546f6b656e20636f756c64206e6f74206265207472616e73666560008201527f7272656400000000000000000000000000000000000000000000000000000000602082015250565b7f6e6f7420696e2076616c69642074696d652077696e646f770000000000000000600082015250565b7f74776565744d696e4475726174696f6e206d757374206265206772656174657260008201527f2030000000000000000000000000000000000000000000000000000000000000602082015250565b7f74696d6557696e646f77537461727420697320696e2074686520706173740000600082015250565b7f61677265656d656e7420616c72656164792066756c66696c6c65640000000000600082015250565b60028110611b2b57611b2a61189f565b5b50565b611b3781611770565b8114611b4257600080fd5b50565b611b4e81611782565b8114611b5957600080fd5b50565b611b658161178e565b8114611b7057600080fd5b50565b60028110611b8057600080fd5b50565b611b8c816117cb565b8114611b9757600080fd5b5056fea26469706673582212203bf641fa7a563c05c81150e0a44ed5cf07fcbb24dafae60687d2d425b2534ca564736f6c63430008040033",
  "linkReferences": {},
  "deployedLinkReferences": {}
}