{
  "_format": "hh-sol-artifact-1",
  "contractName": "Escrow",
  "sourceName": "contracts/EscrowPlatform.sol",
  "abi": [
    {
      "inputs": [
        {
          "internalType": "address[]",
          "name": "_tokenWhitelist",
          "type": "address[]"
        },
        {
          "internalType": "address",
          "name": "_treasury",
          "type": "address"
        }
      ],
      "stateMutability": "nonpayable",
      "type": "constructor"
    },
    {
      "anonymous": false,
      "inputs": [
        {
          "indexed": true,
          "internalType": "uint256",
          "name": "taskId",
          "type": "uint256"
        },
        {
          "indexed": true,
          "internalType": "address",
          "name": "sponsor",
          "type": "address"
        },
        {
          "indexed": true,
          "internalType": "address",
          "name": "promoter",
          "type": "address"
        }
      ],
      "name": "TaskCreated",
      "type": "event"
    },
    {
      "inputs": [],
      "name": "baseFee",
      "outputs": [
        {
          "internalType": "uint256",
          "name": "",
          "type": "uint256"
        }
      ],
      "stateMutability": "view",
      "type": "function"
    },
    {
      "inputs": [
        {
          "internalType": "enum IEscrow.Platform",
          "name": "platform",
          "type": "uint8"
        },
        {
          "internalType": "address",
          "name": "promoter",
          "type": "address"
        },
        {
          "internalType": "uint256",
          "name": "promoterUserId",
          "type": "uint256"
        },
        {
          "internalType": "address",
          "name": "erc20Token",
          "type": "address"
        },
        {
          "internalType": "uint256",
          "name": "depositAmount",
          "type": "uint256"
        },
        {
          "internalType": "uint256",
          "name": "timeWindowStart",
          "type": "uint256"
        },
        {
          "internalType": "uint256",
          "name": "timeWindowEnd",
          "type": "uint256"
        },
        {
          "internalType": "uint256",
          "name": "persistenceDuration",
          "type": "uint256"
        },
        {
          "internalType": "bytes32",
          "name": "taskHash",
          "type": "bytes32"
        }
      ],
      "name": "createTask",
      "outputs": [],
      "stateMutability": "payable",
      "type": "function"
    },
    {
      "inputs": [],
      "name": "getAllTasks",
      "outputs": [
        {
          "components": [
            {
              "internalType": "enum IEscrow.Status",
              "name": "status",
              "type": "uint8"
            },
            {
              "internalType": "enum IEscrow.Platform",
              "name": "platform",
              "type": "uint8"
            },
            {
              "internalType": "address",
              "name": "sponsor",
              "type": "address"
            },
            {
              "internalType": "address",
              "name": "promoter",
              "type": "address"
            },
            {
              "internalType": "uint256",
              "name": "promoterUserId",
              "type": "uint256"
            },
            {
              "internalType": "address",
              "name": "erc20Token",
              "type": "address"
            },
            {
              "internalType": "uint256",
              "name": "depositAmount",
              "type": "uint256"
            },
            {
              "internalType": "uint256",
              "name": "timeWindowStart",
              "type": "uint256"
            },
            {
              "internalType": "uint256",
              "name": "timeWindowEnd",
              "type": "uint256"
            },
            {
              "internalType": "uint256",
              "name": "persistenceDuration",
              "type": "uint256"
            },
            {
              "internalType": "bytes32",
              "name": "taskHash",
              "type": "bytes32"
            }
          ],
          "internalType": "struct IEscrow.Task[]",
          "name": "_tasks",
          "type": "tuple[]"
        }
      ],
      "stateMutability": "view",
      "type": "function"
    },
    {
      "inputs": [
        {
          "internalType": "uint256",
          "name": "taskId",
          "type": "uint256"
        }
      ],
      "name": "getStatus",
      "outputs": [
        {
          "internalType": "enum IEscrow.Status",
          "name": "",
          "type": "uint8"
        }
      ],
      "stateMutability": "view",
      "type": "function"
    },
    {
      "inputs": [
        {
          "internalType": "uint256",
          "name": "taskId",
          "type": "uint256"
        }
      ],
      "name": "getTask",
      "outputs": [
        {
          "components": [
            {
              "internalType": "enum IEscrow.Status",
              "name": "status",
              "type": "uint8"
            },
            {
              "internalType": "enum IEscrow.Platform",
              "name": "platform",
              "type": "uint8"
            },
            {
              "internalType": "address",
              "name": "sponsor",
              "type": "address"
            },
            {
              "internalType": "address",
              "name": "promoter",
              "type": "address"
            },
            {
              "internalType": "uint256",
              "name": "promoterUserId",
              "type": "uint256"
            },
            {
              "internalType": "address",
              "name": "erc20Token",
              "type": "address"
            },
            {
              "internalType": "uint256",
              "name": "depositAmount",
              "type": "uint256"
            },
            {
              "internalType": "uint256",
              "name": "timeWindowStart",
              "type": "uint256"
            },
            {
              "internalType": "uint256",
              "name": "timeWindowEnd",
              "type": "uint256"
            },
            {
              "internalType": "uint256",
              "name": "persistenceDuration",
              "type": "uint256"
            },
            {
              "internalType": "bytes32",
              "name": "taskHash",
              "type": "bytes32"
            }
          ],
          "internalType": "struct IEscrow.Task",
          "name": "",
          "type": "tuple"
        }
      ],
      "stateMutability": "view",
      "type": "function"
    },
    {
      "inputs": [],
      "name": "owner",
      "outputs": [
        {
          "internalType": "address",
          "name": "",
          "type": "address"
        }
      ],
      "stateMutability": "view",
      "type": "function"
    },
    {
      "inputs": [],
      "name": "taskCount",
      "outputs": [
        {
          "internalType": "uint256",
          "name": "",
          "type": "uint256"
        }
      ],
      "stateMutability": "view",
      "type": "function"
    },
    {
      "inputs": [],
      "name": "treasury",
      "outputs": [
        {
          "internalType": "address",
          "name": "",
          "type": "address"
        }
      ],
      "stateMutability": "view",
      "type": "function"
    }
  ],
  "bytecode": "0x6080604052603260035560006004553480156200001b57600080fd5b5060405162001bd838038062001bd883398181016040528101906200004191906200024a565b336000806101000a81548173ffffffffffffffffffffffffffffffffffffffff021916908373ffffffffffffffffffffffffffffffffffffffff160217905550816002908051906020019062000099929190620000e3565b5080600160006101000a81548173ffffffffffffffffffffffffffffffffffffffff021916908373ffffffffffffffffffffffffffffffffffffffff1602179055505050620003c0565b8280548282559060005260206000209081019282156200015f579160200282015b828111156200015e5782518260006101000a81548173ffffffffffffffffffffffffffffffffffffffff021916908373ffffffffffffffffffffffffffffffffffffffff1602179055509160200191906001019062000104565b5b5090506200016e919062000172565b5090565b5b808211156200018d57600081600090555060010162000173565b5090565b6000620001a8620001a284620002cd565b620002a4565b90508083825260208201905082856020860282011115620001c857600080fd5b60005b85811015620001fc5781620001e1888262000206565b845260208401935060208301925050600181019050620001cb565b5050509392505050565b6000815190506200021781620003a6565b92915050565b600082601f8301126200022f57600080fd5b81516200024184826020860162000191565b91505092915050565b600080604083850312156200025e57600080fd5b600083015167ffffffffffffffff8111156200027957600080fd5b62000287858286016200021d565b92505060206200029a8582860162000206565b9150509250929050565b6000620002b0620002c3565b9050620002be828262000330565b919050565b6000604051905090565b600067ffffffffffffffff821115620002eb57620002ea62000366565b5b602082029050602081019050919050565b6000620003098262000310565b9050919050565b600073ffffffffffffffffffffffffffffffffffffffff82169050919050565b6200033b8262000395565b810181811067ffffffffffffffff821117156200035d576200035c62000366565b5b80604052505050565b7f4e487b7100000000000000000000000000000000000000000000000000000000600052604160045260246000fd5b6000601f19601f8301169050919050565b620003b181620002fc565b8114620003bd57600080fd5b50565b61180880620003d06000396000f3fe60806040526004361061006b5760003560e01c80631d65e77e146100705780635c622a0e146100ad57806361d027b3146100ea5780636ef25c3a14610115578063779900b4146101405780638da5cb5b1461016b578063b6cb58a514610196578063d493809e146101c1575b600080fd5b34801561007c57600080fd5b5061009760048036038101906100929190610f83565b6101dd565b6040516100a4919061143b565b60405180910390f35b3480156100b957600080fd5b506100d460048036038101906100cf9190610f83565b610457565b6040516100e19190611380565b60405180910390f35b3480156100f657600080fd5b506100ff610484565b60405161010c919061130c565b60405180910390f35b34801561012157600080fd5b5061012a6104aa565b6040516101379190611457565b60405180910390f35b34801561014c57600080fd5b506101556104b0565b604051610162919061135e565b60405180910390f35b34801561017757600080fd5b50610180610785565b60405161018d919061130c565b60405180910390f35b3480156101a257600080fd5b506101ab6107a9565b6040516101b89190611457565b60405180910390f35b6101db60048036038101906101d69190610ebd565b6107af565b005b6101e5610d1c565b60056000838152602001908152602001600020604051806101600160405290816000820160009054906101000a900460ff16600281111561024f577f4e487b7100000000000000000000000000000000000000000000000000000000600052602160045260246000fd5b6002811115610287577f4e487b7100000000000000000000000000000000000000000000000000000000600052602160045260246000fd5b81526020016000820160019054906101000a900460ff1660038111156102d6577f4e487b7100000000000000000000000000000000000000000000000000000000600052602160045260246000fd5b600381111561030e577f4e487b7100000000000000000000000000000000000000000000000000000000600052602160045260246000fd5b81526020016000820160029054906101000a900473ffffffffffffffffffffffffffffffffffffffff1673ffffffffffffffffffffffffffffffffffffffff1673ffffffffffffffffffffffffffffffffffffffff1681526020016001820160009054906101000a900473ffffffffffffffffffffffffffffffffffffffff1673ffffffffffffffffffffffffffffffffffffffff1673ffffffffffffffffffffffffffffffffffffffff168152602001600282015481526020016003820160009054906101000a900473ffffffffffffffffffffffffffffffffffffffff1673ffffffffffffffffffffffffffffffffffffffff1673ffffffffffffffffffffffffffffffffffffffff168152602001600482015481526020016005820154815260200160068201548152602001600782015481526020016008820154815250509050919050565b60006005600083815260200190815260200160002060000160009054906101000a900460ff169050919050565b600160009054906101000a900473ffffffffffffffffffffffffffffffffffffffff1681565b60035481565b606060005b6004548110156107815760056000828152602001908152602001600020604051806101600160405290816000820160009054906101000a900460ff166002811115610529577f4e487b7100000000000000000000000000000000000000000000000000000000600052602160045260246000fd5b6002811115610561577f4e487b7100000000000000000000000000000000000000000000000000000000600052602160045260246000fd5b81526020016000820160019054906101000a900460ff1660038111156105b0577f4e487b7100000000000000000000000000000000000000000000000000000000600052602160045260246000fd5b60038111156105e8577f4e487b7100000000000000000000000000000000000000000000000000000000600052602160045260246000fd5b81526020016000820160029054906101000a900473ffffffffffffffffffffffffffffffffffffffff1673ffffffffffffffffffffffffffffffffffffffff1673ffffffffffffffffffffffffffffffffffffffff1681526020016001820160009054906101000a900473ffffffffffffffffffffffffffffffffffffffff1673ffffffffffffffffffffffffffffffffffffffff1673ffffffffffffffffffffffffffffffffffffffff168152602001600282015481526020016003820160009054906101000a900473ffffffffffffffffffffffffffffffffffffffff1673ffffffffffffffffffffffffffffffffffffffff1673ffffffffffffffffffffffffffffffffffffffff16815260200160048201548152602001600582015481526020016006820154815260200160078201548152602001600882015481525050828281518110610763577f4e487b7100000000000000000000000000000000000000000000000000000000600052603260045260246000fd5b6020026020010181905250808061077990611558565b9150506104b5565b5090565b60008054906101000a900473ffffffffffffffffffffffffffffffffffffffff1681565b60045481565b82421080156107bd57508284105b6107fc576040517f08c379a00000000000000000000000000000000000000000000000000000000081526004016107f39061139b565b60405180910390fd5b6000821161083f576040517f08c379a0000000000000000000000000000000000000000000000000000000008152600401610836906113fb565b60405180910390fd5b60008511610882576040517f08c379a0000000000000000000000000000000000000000000000000000000008152600401610879906113bb565b60405180910390fd5b3373ffffffffffffffffffffffffffffffffffffffff168873ffffffffffffffffffffffffffffffffffffffff1614156108f1576040517f08c379a00000000000000000000000000000000000000000000000000000000081526004016108e8906113db565b60405180910390fd5b60008673ffffffffffffffffffffffffffffffffffffffff166323b872dd3330896040518463ffffffff1660e01b815260040161093093929190611327565b602060405180830381600087803b15801561094a57600080fd5b505af115801561095e573d6000803e3d6000fd5b505050506040513d601f19601f820116820180604052508101906109829190610e94565b9050806109c4576040517f08c379a00000000000000000000000000000000000000000000000000000000081526004016109bb9061141b565b60405180910390fd5b60405180610160016040528060016002811115610a0a577f4e487b7100000000000000000000000000000000000000000000000000000000600052602160045260246000fd5b81526020018b6003811115610a48577f4e487b7100000000000000000000000000000000000000000000000000000000600052602160045260246000fd5b81526020013373ffffffffffffffffffffffffffffffffffffffff1681526020018a73ffffffffffffffffffffffffffffffffffffffff1681526020018981526020018873ffffffffffffffffffffffffffffffffffffffff1681526020018781526020018681526020018581526020018481526020018381525060056000600454815260200190815260200160002060008201518160000160006101000a81548160ff02191690836002811115610b29577f4e487b7100000000000000000000000000000000000000000000000000000000600052602160045260246000fd5b021790555060208201518160000160016101000a81548160ff02191690836003811115610b7f577f4e487b7100000000000000000000000000000000000000000000000000000000600052602160045260246000fd5b021790555060408201518160000160026101000a81548173ffffffffffffffffffffffffffffffffffffffff021916908373ffffffffffffffffffffffffffffffffffffffff16021790555060608201518160010160006101000a81548173ffffffffffffffffffffffffffffffffffffffff021916908373ffffffffffffffffffffffffffffffffffffffff1602179055506080820151816002015560a08201518160030160006101000a81548173ffffffffffffffffffffffffffffffffffffffff021916908373ffffffffffffffffffffffffffffffffffffffff16021790555060c0820151816004015560e082015181600501556101008201518160060155610120820151816007015561014082015181600801559050508873ffffffffffffffffffffffffffffffffffffffff163373ffffffffffffffffffffffffffffffffffffffff166004547f2454c22dc684ff5512045882a113101049fde511c581e351116949e9a2ed763760405160405180910390a460046000815480929190610d0b90611558565b919050555050505050505050505050565b60405180610160016040528060006002811115610d62577f4e487b7100000000000000000000000000000000000000000000000000000000600052602160045260246000fd5b815260200160006003811115610da1577f4e487b7100000000000000000000000000000000000000000000000000000000600052602160045260246000fd5b8152602001600073ffffffffffffffffffffffffffffffffffffffff168152602001600073ffffffffffffffffffffffffffffffffffffffff16815260200160008152602001600073ffffffffffffffffffffffffffffffffffffffff16815260200160008152602001600081526020016000815260200160008152602001600080191681525090565b600081359050610e3a81611766565b92915050565b600081519050610e4f8161177d565b92915050565b600081359050610e6481611794565b92915050565b600081359050610e79816117ab565b92915050565b600081359050610e8e816117bb565b92915050565b600060208284031215610ea657600080fd5b6000610eb484828501610e40565b91505092915050565b60008060008060008060008060006101208a8c031215610edc57600080fd5b6000610eea8c828d01610e6a565b9950506020610efb8c828d01610e2b565b9850506040610f0c8c828d01610e7f565b9750506060610f1d8c828d01610e2b565b9650506080610f2e8c828d01610e7f565b95505060a0610f3f8c828d01610e7f565b94505060c0610f508c828d01610e7f565b93505060e0610f618c828d01610e7f565b925050610100610f738c828d01610e55565b9150509295985092959850929598565b600060208284031215610f9557600080fd5b6000610fa384828501610e7f565b91505092915050565b6000610fb8838361112c565b6101608301905092915050565b610fce816114bc565b82525050565b610fdd816114bc565b82525050565b6000610fee82611482565b610ff8818561149a565b935061100383611472565b8060005b8381101561103457815161101b8882610fac565b97506110268361148d565b925050600181019050611007565b5085935050505092915050565b61104a816114da565b82525050565b61105981611534565b82525050565b61106881611546565b82525050565b61107781611546565b82525050565b600061108a6027836114ab565b9150611095826115ff565b604082019050919050565b60006110ad6019836114ab565b91506110b88261164e565b602082019050919050565b60006110d06019836114ab565b91506110db82611677565b602082019050919050565b60006110f36025836114ab565b91506110fe826116a0565b604082019050919050565b60006111166024836114ab565b9150611121826116ef565b604082019050919050565b61016082016000820151611143600085018261105f565b5060208201516111566020850182611050565b5060408201516111696040850182610fc5565b50606082015161117c6060850182610fc5565b50608082015161118f60808501826112ee565b5060a08201516111a260a0850182610fc5565b5060c08201516111b560c08501826112ee565b5060e08201516111c860e08501826112ee565b506101008201516111dd6101008501826112ee565b506101208201516111f26101208501826112ee565b50610140820151611207610140850182611041565b50505050565b61016082016000820151611224600085018261105f565b5060208201516112376020850182611050565b50604082015161124a6040850182610fc5565b50606082015161125d6060850182610fc5565b50608082015161127060808501826112ee565b5060a082015161128360a0850182610fc5565b5060c082015161129660c08501826112ee565b5060e08201516112a960e08501826112ee565b506101008201516112be6101008501826112ee565b506101208201516112d36101208501826112ee565b506101408201516112e8610140850182611041565b50505050565b6112f78161152a565b82525050565b6113068161152a565b82525050565b60006020820190506113216000830184610fd4565b92915050565b600060608201905061133c6000830186610fd4565b6113496020830185610fd4565b61135660408301846112fd565b949350505050565b600060208201905081810360008301526113788184610fe3565b905092915050565b6000602082019050611395600083018461106e565b92915050565b600060208201905081810360008301526113b48161107d565b9050919050565b600060208201905081810360008301526113d4816110a0565b9050919050565b600060208201905081810360008301526113f4816110c3565b9050919050565b60006020820190508181036000830152611414816110e6565b9050919050565b6000602082019050818103600083015261143481611109565b9050919050565b600061016082019050611451600083018461120d565b92915050565b600060208201905061146c60008301846112fd565b92915050565b6000819050602082019050919050565b600081519050919050565b6000602082019050919050565b600082825260208201905092915050565b600082825260208201905092915050565b60006114c78261150a565b9050919050565b60008115159050919050565b6000819050919050565b60008190506114f28261173e565b919050565b600081905061150582611752565b919050565b600073ffffffffffffffffffffffffffffffffffffffff82169050919050565b6000819050919050565b600061153f826114e4565b9050919050565b6000611551826114f7565b9050919050565b60006115638261152a565b91507fffffffffffffffffffffffffffffffffffffffffffffffffffffffffffffffff821415611596576115956115a1565b5b600182019050919050565b7f4e487b7100000000000000000000000000000000000000000000000000000000600052601160045260246000fd5b7f4e487b7100000000000000000000000000000000000000000000000000000000600052602160045260246000fd5b7f74696d6557696e646f77456e64206973206265666f72652074696d6557696e6460008201527f6f77537461727400000000000000000000000000000000000000000000000000602082015250565b7f6465706f736974416d6f756e742063616e6e6f74206265203000000000000000600082015250565b7f70726f6d6f7465722063616e6e6f742062652073656e64657200000000000000600082015250565b7f70657273697374656e63654475726174696f6e206d757374206265206772656160008201527f7465722030000000000000000000000000000000000000000000000000000000602082015250565b7f455243323020546f6b656e20636f756c64206e6f74206265207472616e73666560008201527f7272656400000000000000000000000000000000000000000000000000000000602082015250565b6004811061174f5761174e6115d0565b5b50565b60038110611763576117626115d0565b5b50565b61176f816114bc565b811461177a57600080fd5b50565b611786816114ce565b811461179157600080fd5b50565b61179d816114da565b81146117a857600080fd5b50565b600481106117b857600080fd5b50565b6117c48161152a565b81146117cf57600080fd5b5056fea26469706673582212206a001b5e6c8104bc89aabcd7d25d207bc23314a992bb35ff3e55fcaec5074f2664736f6c63430008040033",
  "linkReferences": {},
  "deployedLinkReferences": {}
}